:100000000C9476000C945B060C948C060C94BD0644
:100010000C94EE060C941F070C9450070C94810767
:100020000C94B2070C94A3000C94A3000C94A300AE
:100030000C94A3000C94A3000C94A3000C94A300B4
:100040000C94A3000C94A3000C94A3000C94A300A4
:100050000C94A3000C94A3000C94A3000C94E3074D
:100060000C94A3000C94A5000C94A1010C94A30083
:100070000C94A3000C94A3000C94A3000C94A30074
:100080000C94A3000C94A3000C94A3000C94A30064
:100090000C94E4000C94E0010C94A3000C94A300D5
:1000A0000C94A3000C94A3000C94A3000C94A30044
:1000B0000C94A3000C94A3000C94A3000C94A30034
:1000C0000C94A3000C94A3000C94A3000C942301A3
:1000D0000C941F020C94A3000C9462010C945E0219
:1000E0000C94A300CE0304051B091C0911241FBE98
:1000F000CFEFD1E2DEBFCDBF00E00CBF12E0A0E049
:10010000B2E0E8EFF8E100E00BBF02C007900D920B
:10011000AE31B107D9F71BBE15E0AEE1B2E001C0C8
:100120001D92A630B107E1F710E0CAEED0E004C09E
:100130002297FE010E946B0CC43ED107C9F70E94B2
:10014000280A0C946F0C0C9400001F920F920FB6AB
:100150000F920BB60F9211242F933F934F938F93CF
:100160009F93EF93FF938091C00082FD1DC040914B
:10017000C60020915E0230915F022F5F3F4F2F73C8
:10018000307080916002909161022817390771F0F8
:10019000E0915E02F0915F02E25EFD4F408330939A
:1001A0005F0220935E0202C08091C600FF91EF9132
:1001B0009F918F914F913F912F910F900BBE0F9078
:1001C0000FBE0F901F9018951F920F920FB60F92AF
:1001D0000BB60F9211242F933F934F938F939F93BE
:1001E000EF93FF938091C80082FD1DC04091CE0027
:1001F0002091E6023091E7022F5F3F4F2F7330705E
:100200008091E8029091E9022817390771F0E09196
:10021000E602F091E702EA55FD4F40833093E70292
:100220002093E60202C08091CE00FF91EF919F9152
:100230008F914F913F912F910F900BBE0F900FBE5A
:100240000F901F9018951F920F920FB60F920BB63A
:100250000F9211242F933F934F938F939F93EF937C
:10026000FF938091D00082FD1DC04091D600209167
:100270006E0330916F032F5F3F4F2F73307080916B
:100280007003909171032817390771F0E0916E03A4
:10029000F0916F03E25DFC4F408330936F03209336
:1002A0006E0302C08091D600FF91EF919F918F91D4
:1002B0004F913F912F910F900BBE0F900FBE0F905B
:1002C0001F9018951F920F920FB60F920BB60F92B8
:1002D00011242F933F934F938F939F93EF93FF930B
:1002E0008091300182FD1DC0409136012091F603BE
:1002F0003091F7032F5F3F4F2F7330708091F803D9
:100300009091F9032817390771F0E091F603F09105
:10031000F703EA54FC4F40833093F7032093F6032E
:1003200002C080913601FF91EF919F918F914F9183
:100330003F912F910F900BBE0F900FBE0F901F900B
:1003400018951F920F920FB60F920BB60F921124B1
:100350002F933F938F939F93EF93FF932091A2024C
:100360003091A3028091A4029091A5022817390729
:1003700031F48091C1008F7D8093C10014C0E09161
:10038000A402F091A502EE59FD4F20818091A402B4
:100390009091A50201968F7390709093A50280931F
:1003A000A4022093C600FF91EF919F918F913F91FE
:1003B0002F910F900BBE0F900FBE0F901F901895AE
:1003C0001F920F920FB60F920BB60F9211242F931C
:1003D0003F938F939F93EF93FF9320912A03309144
:1003E0002B0380912C0390912D032817390731F4AA
:1003F0008091C9008F7D8093C90014C0E0912C03C7
:10040000F0912D03E651FD4F208180912C039091B6
:100410002D0301968F73907090932D0380932C037E
:100420002093CE00FF91EF919F918F913F912F915B
:100430000F900BBE0F900FBE0F901F9018951F923C
:100440000F920FB60F920BB60F9211242F933F937A
:100450008F939F93EF93FF932091B2033091B30357
:100460008091B4039091B5032817390731F4809136
:10047000D1008F7D8093D10014C0E091B403F0913E
:10048000B503EE58FC4F20818091B4039091B503E1
:1004900001968F7390709093B5038093B40320936B
:1004A000D600FF91EF919F918F913F912F910F90E7
:1004B0000BBE0F900FBE0F901F9018951F920F92BA
:1004C0000FB60F920BB60F9211242F933F938F9379
:1004D0009F93EF93FF9320913A0430913B048091D6
:1004E0003C0490913D042817390731F48091310183
:1004F0008F7D8093310114C0E0913C04F0913D0464
:10050000E650FC4F208180913C0490913D0401967F
:100510008F73907090933D0480933C042093360138
:10052000FF91EF919F918F913F912F910F900BBE73
:100530000F900FBE0F901F901895AF92BF92DF9251
:10054000EF92FF920F931F93CF93DF93EC017A0109
:100550008B01DD24403081EE580780E0680780E0A1
:10056000780711F0DD24D39491E0A92EB12CEC8909
:10057000FD89DD2069F0C50108A002C0880F991F20
:100580000A94E2F7808360E079E08DE390E005C0B3
:10059000108260E874E88EE190E0A80197010E9463
:1005A000470C215030404040504056954795379574
:1005B000279580E12030380720F0DD2011F0DD2480
:1005C000D6CFE889F9893083EA89FB89208319A28B
:1005D000EE89FF89408121E030E0C9010C8C02C026
:1005E000880F991F0A94E2F7482B4083EE89FF8910
:1005F0004081C9010D8C02C0880F991F0A94E2F74F
:10060000482B4083EE89FF894081C9010E8C02C0CE
:10061000880F991F0A94E2F7482B4083EE89FF89DF
:1006200080810F8C02C0220F331F0A94E2F72095BD
:1006300028232083DF91CF911F910F91FF90EF909E
:10064000DF90BF90AF900895DC011C96ED91FC9176
:100650001D97E05CFF4F2191319180819181281B92
:10066000390B2F733070C9010895DC011C96ED9190
:10067000FC911D97E05CFF4F20813181E054F040F8
:10068000DF01AE5BBF4F8D919C9111972817390701
:1006900019F42FEF3FEF07C08D919C91E80FF91FE0
:1006A0008081282F30E0C9010895DC011C96ED916E
:1006B000FC911D97E05CFF4F20813181E054F040B8
:1006C000DF01AE5BBF4F8D919C91119728173907C1
:1006D00019F42FEF3FEF10C08D919C911197E80F07
:1006E000F91F20818D919C91119701968F739070C5
:1006F00011969C938E9330E0C9010895DC01919688
:100700008C919197882339F05496ED91FC915597EF
:10071000808186FFF9CF91961C920895CF93DF9345
:10072000EC01EE85FF85E05CFF4F20813181E054D4
:10073000F0402F5F3F4F2F733070DF01AE5BBF4F34
:100740008D919C91119728173907D1F3E05CFF4FE9
:1007500080819181E054F040E80FF91F6083EE85BD
:10076000FF85E05CFF4F31832083EE89FF89208184
:1007700081E090E00F8C02C0880F991F0A94E2F785
:10078000282B208381E089A3EC89FD898081806406
:10079000808381E090E0DF91CF9108951F931092C4
:1007A00041041092400428EE33E040E050E02093F2
:1007B00042043093430440934404509345046AE058
:1007C00072E070933F0460933E048EE192E0909358
:1007D0004B0480934A0482E692E090934D04809308
:1007E0004C0485EC90E090934F0480934E0484EC8D
:1007F00090E0909351048093500480EC90E09093AB
:1008000053048093520481EC90E0909355048093BC
:10081000540482EC90E0909357048093560486EC45
:1008200090E0909359048093580414E010935A0474
:10083000B3E0B0935B04A7E0A0935C04F5E0F09311
:100840005D04E1E0E0935E041092630410926204A0
:1008500020936404309365044093660450936704C6
:10086000709361046093600486EA92E090936D0453
:1008700080936C048AEE92E090936F0480936E04F0
:100880008DEC90E090937104809370048CEC90E078
:10089000909373048093720488EC90E090937504B5
:1008A0008093740489EC90E09093770480937604AD
:1008B0008AEC90E090937904809378048EEC90E039
:1008C00090937B0480937A0410937C04B0937D040E
:1008D000A0937E04F0937F04E0938004109285043B
:1008E00010928404209386043093870440938804F4
:1008F0005093890470938304609382048EE293E0A2
:1009000090938F0480938E0482E793E090939104F8
:100910008093900485ED90E09093930480939204EB
:1009200084ED90E0909395048093940480ED90E0A2
:10093000909397048093960481ED90E090939904AE
:100940008093980482ED90E090939B0480939A04A6
:1009500086ED90E090939D0480939C0410939E04F8
:10096000B0939F04A093A004F093A104E093A20489
:100970001092A7041092A6042093A8043093A9040F
:100980004093AA045093AB047093A5046093A4040D
:1009900086EB93E09093B1048093B0048AEF93E0E8
:1009A0009093B3048093B20485E391E09093B504EF
:1009B0008093B40484E391E09093B7048093B604E9
:1009C00080E391E09093B9048093B80481E391E0CF
:1009D0009093BB048093BA0482E391E09093BD04AA
:1009E0008093BC0486E391E09093BF048093BE049F
:1009F0001093C004B093C104A093C204F093C30445
:100A0000E093C4041F9108958AE192E09093C70493
:100A10008093C6041092C8041092C9041092CA04AC
:100A20001092CB0408958F929F92AF92BF92CF9273
:100A3000DF92EF92FF920F931F93CF93DF934C01BE
:100A40006B017C01AA24BB24C0E0D0E0C601F70101
:100A500062814AE050E00E9436068C01C6016EE2D7
:100A60000E947F05080F191FA00EB11E2196089441
:100A7000E11CF11CC330D10549F7C601F4016581C1
:100A80004AE050E00E9436069501280F391FC9013F
:100A9000DF91CF911F910F91FF90EF90DF90CF905A
:100AA000BF90AF909F908F900895CF92DF92EF927A
:100AB000FF920F931F93CF93DF937C016B018A0109
:100AC000C0E0D0E00FC0D6016D916D01D701ED916E
:100AD000FC910190F081E02DC7011995C80FD91F35
:100AE000015010400115110571F7CE01DF91CF9132
:100AF0001F910F91FF90EF90DF90CF900895DC0150
:100B0000ED91FC910190F081E02D19950895EF92FF
:100B1000FF920F931F938C01DC01ED91FC910190EA
:100B2000F081E02D6DE019957C01D801ED91FC91EB
:100B30000190F081E02DC8016AE019959C012E0D0D
:100B40003F1DC9011F910F91FF90EF900895CF9322
:100B5000DF93EC016115710519F420E030E00FC05E
:100B6000DB010D900020E9F71197A61BB70BE88178
:100B7000F9810280F381E02DAD0119959C01C90135
:100B8000DF91CF9108954F925F927F928F929F92C3
:100B9000AF92BF92CF92DF92EF92FF920F931F938B
:100BA000DF93CF93CDB7DEB7A1970FB6F894DEBF32
:100BB0000FBECDBF2C01742ECB01223008F42AE0E9
:100BC00019A231E2C32ED12CCC0EDD1E822E992427
:100BD000AA24BB24672D752FA50194010E94470C00
:100BE00079018A01C801B701A50194010E94280C6E
:100BF000472D461B0894C108D1084A3014F4405DC3
:100C000001C0495CF6014083E114F10401051105BE
:100C100021F07E2C5F2DC801DDCFC201B6010E94FC
:100C2000A705A1960FB6F894DEBF0FBECDBFCF913A
:100C3000DF911F910F91FF90EF90DF90CF90BF90C9
:100C4000AF909F908F907F905F904F900895DC01C0
:100C50002115310541F4ED91FC910190F081E02DD9
:100C6000642F199508950E94C3050895EF92FF928D
:100C70000F931F939A01E62EFF2400E010E0B801C5
:100C8000A7010E9427061F910F91FF90EF900895F2
:100C9000EF92FF920F931F937C010E94A7058C0196
:100CA000C7010E948705080F191FC8011F910F91E6
:100CB000FF90EF9008951F920F920FB60F920BB610
:100CC0000F9211242F933F934F935F936F937F93D2
:100CD0008F939F93AF93BF93EF93FF938091D00433
:100CE0009091D104892B29F0E091D004F091D104A6
:100CF0001995FF91EF91BF91AF919F918F917F9146
:100D00006F915F914F913F912F910F900BBE0F907C
:100D10000FBE0F901F9018951F920F920FB60F9253
:100D20000BB60F9211242F933F934F935F936F93C2
:100D30007F938F939F93AF93BF93EF93FF93809194
:100D4000D2049091D304892B29F0E091D204F09140
:100D5000D3041995FF91EF91BF91AF919F918F911E
:100D60007F916F915F914F913F912F910F900BBEAB
:100D70000F900FBE0F901F9018951F920F920FB6F5
:100D80000F920BB60F9211242F933F934F935F93C3
:100D90006F937F938F939F93AF93BF93EF93FF9343
:100DA0008091D4049091D504892B29F0E091D4044A
:100DB000F091D5041995FF91EF91BF91AF919F915B
:100DC0008F917F916F915F914F913F912F910F90F4
:100DD0000BBE0F900FBE0F901F9018951F920F9291
:100DE0000FB60F920BB60F9211242F933F934F9390
:100DF0005F936F937F938F939F93AF93BF93EF9383
:100E0000FF938091D6049091D704892B29F0E0912B
:100E1000D604F091D7041995FF91EF91BF91AF914E
:100E20009F918F917F916F915F914F913F912F9102
:100E30000F900BBE0F900FBE0F901F9018951F9232
:100E40000F920FB60F920BB60F9211242F933F9370
:100E50004F935F936F937F938F939F93AF93BF93C2
:100E6000EF93FF938091CC049091CD04892B29F0CE
:100E7000E091CC04F091CD041995FF91EF91BF91D1
:100E8000AF919F918F917F916F915F914F913F9122
:100E90002F910F900BBE0F900FBE0F901F901895C3
:100EA0001F920F920FB60F920BB60F9211242F9331
:100EB0003F934F935F936F937F938F939F93AF93E2
:100EC000BF93EF93FF938091CE049091CF04892B31
:100ED00029F0E091CE04F091CF041995FF91EF91A4
:100EE000BF91AF919F918F917F916F915F914F9142
:100EF0003F912F910F900BBE0F900FBE0F901F9040
:100F000018951F920F920FB60F920BB60F921124E5
:100F10002F933F934F935F936F937F938F939F9301
:100F2000AF93BF93EF93FF938091D8049091D9042E
:100F3000892B29F0E091D804F091D9041995FF91FB
:100F4000EF91BF91AF919F918F917F916F915F9141
:100F50004F913F912F910F900BBE0F900FBE0F90AE
:100F60001F9018951F920F920FB60F920BB60F920B
:100F700011242F933F934F935F936F937F938F939E
:100F80009F93AF93BF93EF93FF938091DA04909177
:100F9000DB04892B29F0E091DA04F091DB04199548
:100FA000FF91EF91BF91AF919F918F917F916F9141
:100FB0005F914F913F912F910F900BBE0F900FBEFD
:100FC0000F901F9018951F920F920FB60F92112439
:100FD0002F933F938F939F93AF93BF938091E004A0
:100FE0009091E104A091E204B091E3043091E40413
:100FF0000196A11DB11D232F2D5F2D3720F02D57F8
:101000000196A11DB11D2093E4048093E004909308
:10101000E104A093E204B093E3048091DC04909196
:10102000DD04A091DE04B091DF040196A11DB11D85
:101030008093DC049093DD04A093DE04B093DF047E
:10104000BF91AF919F918F913F912F910F900FBEC4
:101050000F901F9018959FB7F8942091DC04309161
:10106000DD044091DE045091DF0486B5A89B06C0E4
:101070008F3F21F02F5F3F4F4F4F5F4F9FBF542F48
:10108000432F322F2227280F311D411D511D82E091
:10109000220F331F441F551F8A95D1F7B901CA018A
:1010A0000895789484B5826084BD84B5816084BDE0
:1010B00085B5826085BD85B5816085BDEEE6F0E0D1
:1010C000808181608083E1E8F0E01082808182602D
:1010D0008083808181608083E0E8F0E080818160AE
:1010E0008083E1EBF0E0808184608083E0EBF0E0DE
:1010F000808181608083E1E9F0E08081826080838B
:10110000808181608083E0E9F0E08081816080837C
:10111000E1EAF0E080818260808380818160808369
:10112000E0EAF0E0808181608083E1E2F1E08081AB
:1011300082608083808181608083E0E2F1E0808151
:1011400081608083EAE7F0E0808184608083808131
:1011500082608083808181608083808180688083D9
:101160001092C1000895EF92FF920F931F93DF93A7
:10117000CF9300D00F92CDB7DEB75C834B83D801FD
:1011800087011C9211961C92119712966C931297DC
:1011900081E013968C93139714964C9314978C813B
:1011A00015968C9315978FEF9FEF9A83898360E054
:1011B00070E0F1E2EF2EF0E1FF2EFD01E60FF71FE8
:1011C000F081E0E089819A818E279F2720E030E03E
:1011D000AC01440F551F97FF04C0CA018E259F25FF
:1011E00001C0CA012F5F3F4F2830310589F79A832C
:1011F00089836F5F7F4F66307105F9F68981169696
:101200008C9316978A8117968C93179718961C9231
:10121000189719961C928AE090E0F80191838083D8
:101220000F900F900F900F90CF91DF911F910F9122
:10123000FF90EF90089508950895CF93DF93EB0109
:10124000688179818A819B8120E030E040E85FE31A
:101250000E94F70A882381F08EE394E040E855E28B
:1012600060E070E00E949D0280E090E0A0E8BFE3B3
:1012700088839983AA83BB83DF91CF910895CF920E
:10128000DF92EF92FF920F931F93DF93CF93CDB72F
:10129000DEB7C250D4400FB6F894DEBF0FBECDBF4C
:1012A0008C01FB017A01608171818281938120E050
:1012B00030E040E85FE30E94F70A8823A1F51A8234
:1012C0001982F80140815181A3E0CA2ED12CCC0EA5
:1012D000DD1E85EE94E0F701608120E034E08601B8
:1012E0007E010894E11CF11C0E94B30889819A8157
:1012F0000A97C9F400E010E076010AC0F701E00F98
:10130000F11F8EE394E060810E948E030F5F1F4FF8
:1013100089819A810817190788F38EE394E060E0C9
:1013200072E00E944806CE5FDB4F0FB6F894DEBF36
:101330000FBECDBFCF91DF911F910F91FF90EF9026
:10134000DF90CF900895089584E090E00E94BA0A5B
:101350001092E7041092E6041092ED041092EC044F
:1013600080E090E0A0E0B0E08093E8049093E9048E
:10137000A093EA04B093EB0408958CEE94E068EE39
:1013800074E045E052E021E030E00E941D0908953C
:10139000EF92FF920F931F936091010270910202EE
:1013A00080910302909104020E94270B7B018C0123
:1013B0000E94AF0A882309F040C0C801B7010E940B
:1013C000840A8823D1F5C801B70120E030E040E865
:1013D00057E40E94410B9B01AC01CB01DA017C0177
:1013E0008D01B901CA0120E030E040E050E00E94E8
:1013F000F70A882354F4C801B70190580E94FB0AE9
:1014000088279927861B970B05C0C801B7010E9442
:10141000FB0ACB019093ED048093EC048CEE94E0F6
:1014200068EE74E045E052E021E030E00E943F09C0
:101430001F910F91FF90EF9008950F2EF0E0EF2E87
:10144000F0E0FF2EF0E00F2FF0E01F2FF02DDDCFAA
:10145000AF92BF92CF92DF92EF92FF920F931F93C2
:10146000CF93DF930E9451080E94A409C0911C02EF
:10147000D0911D02AA24BB24650115C00E942B082F
:101480007B018C01DC01CB018A199B09AC09BD09E8
:1014900080539547A040B04030F00E94C8090E9498
:1014A000BD095701680188819981892B39F30E9410
:1014B000A30980E090E0DF91CF911F910F91FF9001
:1014C000EF90DF90CF90BF90AF90089560E070E014
:1014D00080E89FE7089560E070E080E89FE7089566
:1014E00060E070E080E89FEF089560E070E080E8E1
:1014F0009FEF089560E070E080EC9FEF089560E05A
:1015000070E080EC9FEF0895DF92EF92FF920F93CF
:101510001F937B018C012091F6043091F7044091D8
:10152000F8045091F9040E94F70A882379F0DD2429
:10153000C801B7012091FE043091FF0440910005DD
:10154000509101050E94F70A882311F4DD24D394F9
:101550008D2D1F910F91FF90EF90DF9008951F93B5
:101560009B01AC0110E00E94F70A811111E0812F6C
:101570001F9108950E947A0A6093FA047093FB0405
:101580008093FC049093FD040E947F0A6093EE0414
:101590007093EF048093F0049093F1040E94660A24
:1015A0006093F6047093F7048093F8049093F90421
:1015B0000E946B0A6093F2047093F3048093F40426
:1015C0009093F5040E94700A6093FE047093FF04E8
:1015D00080930005909301050E94750A60930205AF
:1015E000709303058093040590930505089590D0AA
:1015F00008F481E00895F4D088F09F5790F0B92F57
:101600009927B751A0F0D1F0660F771F881F991F57
:101610001AF0BA95C9F712C0B13081F012D1B1E019
:1016200008950FC1672F782F8827B85F39F0B93F29
:10163000CCF3869577956795B395D9F73EF4909559
:101640008095709561957F4F8F4F9F4F0895E2D0A1
:1016500080F09F3740F491110EF0F4C060E070E02C
:1016600080E89FEB089526F41B16611D711D811DF6
:1016700073C08DC09FD018F011F0A3D038F497C07C
:10168000E1C0E92FA5D0B0F35523C9F3E7FB6217FA
:10169000730784079507A8F199F3E92FFF2788239B
:1016A0002AF03197660F771F881FDAF7952F552795
:1016B000442332F091505040220F331F441FD2F781
:1016C000BB27E91BF50B621B730B840BB109C1F23D
:1016D00022F4620F731F841FB11D31972AF0660F29
:1016E000771F881FBB1FEFCF915050405AF041F039
:1016F000882332F0660F771F881F91505040C1F742
:10170000939545C08695779567959F5FD9F7F8CFF4
:10171000990F0008550FAA0BE0E8FEEF1616170602
:10172000E807F907C0F012161306E407F50798F06A
:10173000621B730B840B950B39F40A2661F0232B83
:10174000242B252B21F408950A2609F4A140A695FF
:101750008FEF811D811D0895882371F4772321F077
:101760009850872B762F07C0662311F499270DC058
:101770009051862B70E060E02AF09A95660F771FF3
:10178000881FDAF7880F9695879597F908959F3FF8
:1017900049F0915028F4869577956795B7959F5FA6
:1017A00080389F4F880F9695879597F908959FEFFA
:1017B00080EC089500240A941616170618060906E8
:1017C000089500240A9412161306140605060895B7
:1017D00057FD9058440F551F59F05F3F71F04795E2
:1017E000880F97FB991F61F09F3F79F087950895C7
:1017F000121613061406551FF2CF4695F1DF08C0E6
:10180000161617061806991FF1CF86957105610502
:1018100008940895E5DFA0F0BEE7B91788F4BB2768
:101820009F3860F41616B11D672F782F8827985FB0
:10183000F7CF869577956795B11D93959639C8F33F
:101840000895E894BB2766277727CB0197F9089579
:10185000629FD001739FF001829FE00DF11D649F94
:10186000E00DF11D929FF00D839FF00D749FF00D20
:10187000659FF00D9927729FB00DE11DF91F639FC1
:10188000B00DE11DF91FBD01CF0111240895A1E2A2
:101890001A2EAA1BBB1BFD010DC0AA1FBB1FEE1FEA
:1018A000FF1FA217B307E407F50720F0A21BB30B35
:1018B000E40BF50B661F771F881F991F1A9469F7B1
:1018C00060957095809590959B01AC01BD01CF010D
:1018D0000895EE0FFF1F0590F491E02D199410E08C
:1018E000CAEED0E004C0FE010E946B0C2296CC3EF2
:0818F000D107C9F7F894FFCFFE
:1018F800000000804401000000008E035505240309
:0E190800550335037E03000000001305E604BE
:00000001FF
