:100000000C9476000C9428060C9459060C948A06DD
:100010000C94BB060C94EC060C941D070C944E0734
:100020000C947F070C94A3000C94A3000C94A300E1
:100030000C94A3000C94A3000C94A3000C94A300B4
:100040000C94A3000C94A3000C94A3000C94A300A4
:100050000C94A3000C94A3000C94A3000C94B00780
:100060000C94A3000C94A5000C94A1010C94A30083
:100070000C94A3000C94A3000C94A3000C94A30074
:100080000C94A3000C94A3000C94A3000C94A30064
:100090000C94E4000C94E0010C94A3000C94A300D5
:1000A0000C94A3000C94A3000C94A3000C94A30044
:1000B0000C94A3000C94A3000C94A3000C94A30034
:1000C0000C94A3000C94A3000C94A3000C942301A3
:1000D0000C941F020C94A3000C9462010C945E0219
:1000E0000C94A300CE0304059809990911241FBE9E
:1000F000CFEFD1E2DEBFCDBF00E00CBF12E0A0E049
:10010000B2E0E4E4F6E100E00BBF02C007900D921C
:10011000AE31B107D9F71BBE14E0AEE1B2E001C0C9
:100120001D92A03FB107E1F710E0CAEED0E004C095
:100130002297FE010E94110BC43ED107C9F70E940D
:10014000680A0C94150B0C9400001F920F920FB6C6
:100150000F920BB60F9211242F933F934F938F93CF
:100160009F93EF93FF938091C00082FD1DC040914B
:10017000C60020915E0230915F022F5F3F4F2F73C8
:10018000307080916002909161022817390771F0F8
:10019000E0915E02F0915F02E25EFD4F408330939A
:1001A0005F0220935E0202C08091C600FF91EF9132
:1001B0009F918F914F913F912F910F900BBE0F9078
:1001C0000FBE0F901F9018951F920F920FB60F92AF
:1001D0000BB60F9211242F933F934F938F939F93BE
:1001E000EF93FF938091C80082FD1DC04091CE0027
:1001F0002091E6023091E7022F5F3F4F2F7330705E
:100200008091E8029091E9022817390771F0E09196
:10021000E602F091E702EA55FD4F40833093E70292
:100220002093E60202C08091CE00FF91EF919F9152
:100230008F914F913F912F910F900BBE0F900FBE5A
:100240000F901F9018951F920F920FB60F920BB63A
:100250000F9211242F933F934F938F939F93EF937C
:10026000FF938091D00082FD1DC04091D600209167
:100270006E0330916F032F5F3F4F2F73307080916B
:100280007003909171032817390771F0E0916E03A4
:10029000F0916F03E25DFC4F408330936F03209336
:1002A0006E0302C08091D600FF91EF919F918F91D4
:1002B0004F913F912F910F900BBE0F900FBE0F905B
:1002C0001F9018951F920F920FB60F920BB60F92B8
:1002D00011242F933F934F938F939F93EF93FF930B
:1002E0008091300182FD1DC0409136012091F603BE
:1002F0003091F7032F5F3F4F2F7330708091F803D9
:100300009091F9032817390771F0E091F603F09105
:10031000F703EA54FC4F40833093F7032093F6032E
:1003200002C080913601FF91EF919F918F914F9183
:100330003F912F910F900BBE0F900FBE0F901F900B
:1003400018951F920F920FB60F920BB60F921124B1
:100350002F933F938F939F93EF93FF932091A2024C
:100360003091A3028091A4029091A5022817390729
:1003700031F48091C1008F7D8093C10014C0E09161
:10038000A402F091A502EE59FD4F20818091A402B4
:100390009091A50201968F7390709093A50280931F
:1003A000A4022093C600FF91EF919F918F913F91FE
:1003B0002F910F900BBE0F900FBE0F901F901895AE
:1003C0001F920F920FB60F920BB60F9211242F931C
:1003D0003F938F939F93EF93FF9320912A03309144
:1003E0002B0380912C0390912D032817390731F4AA
:1003F0008091C9008F7D8093C90014C0E0912C03C7
:10040000F0912D03E651FD4F208180912C039091B6
:100410002D0301968F73907090932D0380932C037E
:100420002093CE00FF91EF919F918F913F912F915B
:100430000F900BBE0F900FBE0F901F9018951F923C
:100440000F920FB60F920BB60F9211242F933F937A
:100450008F939F93EF93FF932091B2033091B30357
:100460008091B4039091B5032817390731F4809136
:10047000D1008F7D8093D10014C0E091B403F0913E
:10048000B503EE58FC4F20818091B4039091B503E1
:1004900001968F7390709093B5038093B40320936B
:1004A000D600FF91EF919F918F913F912F910F90E7
:1004B0000BBE0F900FBE0F901F9018951F920F92BA
:1004C0000FB60F920BB60F9211242F933F938F9379
:1004D0009F93EF93FF9320913A0430913B048091D6
:1004E0003C0490913D042817390731F48091310183
:1004F0008F7D8093310114C0E0913C04F0913D0464
:10050000E650FC4F208180913C0490913D0401967F
:100510008F73907090933D0480933C042093360138
:10052000FF91EF919F918F913F912F910F900BBE73
:100530000F900FBE0F901F901895AF92BF92DF9251
:10054000EF92FF920F931F93CF93DF93EC017A0109
:100550008B01DD24403081EE580780E0680780E0A1
:10056000780711F0DD24D39491E0A92EB12CEC8909
:10057000FD89DD2069F0C50108A002C0880F991F20
:100580000A94E2F7808360E079E08DE390E005C0B3
:10059000108260E874E88EE190E0A80197010E9463
:1005A000ED0A2150304040405040569547953795D0
:1005B000279580E12030380720F0DD2011F0DD2480
:1005C000D6CFE889F9893083EA89FB89208319A28B
:1005D000EE89FF89408121E030E0C9010C8C02C026
:1005E000880F991F0A94E2F7482B4083EE89FF8910
:1005F0004081C9010D8C02C0880F991F0A94E2F74F
:10060000482B4083EE89FF894081C9010E8C02C0CE
:10061000880F991F0A94E2F7482B4083EE89FF89DF
:1006200080810F8C02C0220F331F0A94E2F72095BD
:1006300028232083DF91CF911F910F91FF90EF909E
:10064000DF90BF90AF900895DC011C96ED91FC9176
:100650001D97E05CFF4F2191319180819181281B92
:10066000390B2F733070C9010895DC011C96ED9190
:10067000FC911D97E05CFF4F20813181E054F040F8
:10068000DF01AE5BBF4F8D919C9111972817390701
:1006900019F42FEF3FEF07C08D919C91E80FF91FE0
:1006A0008081282F30E0C9010895DC011C96ED916E
:1006B000FC911D97E05CFF4F20813181E054F040B8
:1006C000DF01AE5BBF4F8D919C91119728173907C1
:1006D00019F42FEF3FEF10C08D919C911197E80F07
:1006E000F91F20818D919C91119701968F739070C5
:1006F00011969C938E9330E0C9010895DC01919688
:100700008C919197882339F05496ED91FC915597EF
:10071000808186FFF9CF91961C920895CF93DF9345
:10072000EC01EE85FF85E05CFF4F20813181E054D4
:10073000F0402F5F3F4F2F733070DF01AE5BBF4F34
:100740008D919C91119728173907D1F3E05CFF4FE9
:1007500080819181E054F040E80FF91F6083EE85BD
:10076000FF85E05CFF4F31832083EE89FF89208184
:1007700081E090E00F8C02C0880F991F0A94E2F785
:10078000282B208381E089A3EC89FD898081806406
:10079000808381E090E0DF91CF9108951F931092C4
:1007A00041041092400428EE33E040E050E02093F2
:1007B000420430934304409344045093450469E059
:1007C00072E070933F0460933E048EE192E0909358
:1007D0004B0480934A0482E692E090934D04809308
:1007E0004C0485EC90E090934F0480934E0484EC8D
:1007F00090E0909351048093500480EC90E09093AB
:1008000053048093520481EC90E0909355048093BC
:10081000540482EC90E0909357048093560486EC45
:1008200090E0909359048093580414E010935A0474
:10083000B3E0B0935B04A7E0A0935C04F5E0F09311
:100840005D04E1E0E0935E041092630410926204A0
:1008500020936404309365044093660450936704C6
:10086000709361046093600486EA92E090936D0453
:1008700080936C048AEE92E090936F0480936E04F0
:100880008DEC90E090937104809370048CEC90E078
:10089000909373048093720488EC90E090937504B5
:1008A0008093740489EC90E09093770480937604AD
:1008B0008AEC90E090937904809378048EEC90E039
:1008C00090937B0480937A0410937C04B0937D040E
:1008D000A0937E04F0937F04E0938004109285043B
:1008E00010928404209386043093870440938804F4
:1008F0005093890470938304609382048EE293E0A2
:1009000090938F0480938E0482E793E090939104F8
:100910008093900485ED90E09093930480939204EB
:1009200084ED90E0909395048093940480ED90E0A2
:10093000909397048093960481ED90E090939904AE
:100940008093980482ED90E090939B0480939A04A6
:1009500086ED90E090939D0480939C0410939E04F8
:10096000B0939F04A093A004F093A104E093A20489
:100970001092A7041092A6042093A8043093A9040F
:100980004093AA045093AB047093A5046093A4040D
:1009900086EB93E09093B1048093B0048AEF93E0E8
:1009A0009093B3048093B20485E391E09093B504EF
:1009B0008093B40484E391E09093B7048093B604E9
:1009C00080E391E09093B9048093B80481E391E0CF
:1009D0009093BB048093BA0482E391E09093BD04AA
:1009E0008093BC0486E391E09093BF048093BE049F
:1009F0001093C004B093C104A093C204F093C30445
:100A0000E093C4041F91089589E192E09093C70494
:100A10008093C6041092C8041092C9041092CA04AC
:100A20001092CB0408958F929F92AF92BF92CF9273
:100A3000DF92EF92FF920F931F93CF93DF934C01BE
:100A40006B017C01AA24BB24C0E0D0E0C601F70101
:100A500062814AE050E00E9416068C01C6016EE2F7
:100A60000E947F05080F191FA00EB11E2196089441
:100A7000E11CF11CC330D10549F7C601F4016581C1
:100A80004AE050E00E9416069501280F391FC9015F
:100A9000DF91CF911F910F91FF90EF90DF90CF905A
:100AA000BF90AF909F908F900895CF92DF92EF927A
:100AB000FF920F931F93CF93DF937C016B018A0109
:100AC000C0E0D0E00FC0D6016D916D01D701ED916E
:100AD000FC910190F081E02DC7011995C80FD91F35
:100AE000015010400115110571F7CE01DF91CF9132
:100AF0001F910F91FF90EF90DF90CF900895DC0150
:100B0000ED91FC910190F081E02D19950895CF931E
:100B1000DF93EC016115710519F420E030E00FC09E
:100B2000DB010D900020E9F71197A61BB70BE881B8
:100B3000F9810280F381E02DAD0119959C01C90175
:100B4000DF91CF9108954F925F927F928F929F9203
:100B5000AF92BF92CF92DF92EF92FF920F931F93CB
:100B6000DF93CF93CDB7DEB7A1970FB6F894DEBF72
:100B70000FBECDBF2C01742ECB01223008F42AE029
:100B800019A231E2C32ED12CCC0EDD1E822E992467
:100B9000AA24BB24672D752FA50194010E94ED0A9C
:100BA00079018A01C801B701A50194010E94CE0A0A
:100BB000472D461B0894C108D1084A3014F4405D03
:100BC00001C0495CF6014083E114F10401051105FF
:100BD00021F07E2C5F2DC801DDCFC201B6010E943D
:100BE0008705A1960FB6F894DEBF0FBECDBFCF919B
:100BF000DF911F910F91FF90EF90DF90CF90BF900A
:100C0000AF909F908F907F905F904F900895DC0100
:100C10002115310541F4ED91FC910190F081E02D19
:100C2000642F199508950E94A3050895EF92FF92ED
:100C30000F931F939A01E62EFF2400E010E0B80105
:100C4000A7010E9407061F910F91FF90EF90089552
:100C50001F920F920FB60F920BB60F9211242F9383
:100C60003F934F935F936F937F938F939F93AF9334
:100C7000BF93EF93FF938091D0049091D104892B7F
:100C800029F0E091D004F091D1041995FF91EF91F2
:100C9000BF91AF919F918F917F916F915F914F9194
:100CA0003F912F910F900BBE0F900FBE0F901F9092
:100CB00018951F920F920FB60F920BB60F92112438
:100CC0002F933F934F935F936F937F938F939F9354
:100CD000AF93BF93EF93FF938091D2049091D3048D
:100CE000892B29F0E091D204F091D3041995FF915A
:100CF000EF91BF91AF919F918F917F916F915F9194
:100D00004F913F912F910F900BBE0F900FBE0F9000
:100D10001F9018951F920F920FB60F920BB60F925D
:100D200011242F933F934F935F936F937F938F93F0
:100D30009F93AF93BF93EF93FF938091D4049091CF
:100D4000D504892B29F0E091D404F091D5041995AC
:100D5000FF91EF91BF91AF919F918F917F916F9193
:100D60005F914F913F912F910F900BBE0F900FBE4F
:100D70000F901F9018951F920F920FB60F920BB6FF
:100D80000F9211242F933F934F935F936F937F9311
:100D90008F939F93AF93BF93EF93FF938091D6046C
:100DA0009091D704892B29F0E091D604F091D704D3
:100DB0001995FF91EF91BF91AF919F918F917F9185
:100DC0006F915F914F913F912F910F900BBE0F90BC
:100DD0000FBE0F901F9018951F920F920FB60F9293
:100DE0000BB60F9211242F933F934F935F936F9302
:100DF0007F938F939F93AF93BF93EF93FF938091D4
:100E0000CC049091CD04892B29F0E091CC04F09191
:100E1000CD041995FF91EF91BF91AF919F918F9163
:100E20007F916F915F914F913F912F910F900BBEEA
:100E30000F900FBE0F901F9018951F920F920FB634
:100E40000F920BB60F9211242F933F934F935F9302
:100E50006F937F938F939F93AF93BF93EF93FF9382
:100E60008091CE049091CF04892B29F0E091CE049B
:100E7000F091CF041995FF91EF91BF91AF919F91A0
:100E80008F917F916F915F914F913F912F910F9033
:100E90000BBE0F900FBE0F901F9018951F920F92D0
:100EA0000FB60F920BB60F9211242F933F934F93CF
:100EB0005F936F937F938F939F93AF93BF93EF93C2
:100EC000FF938091D8049091D904892B29F0E09167
:100ED000D804F091D9041995FF91EF91BF91AF918A
:100EE0009F918F917F916F915F914F913F912F9142
:100EF0000F900BBE0F900FBE0F901F9018951F9272
:100F00000F920FB60F920BB60F9211242F933F93AF
:100F10004F935F936F937F938F939F93AF93BF9301
:100F2000EF93FF938091DA049091DB04892B29F0F1
:100F3000E091DA04F091DB041995FF91EF91BF91F4
:100F4000AF919F918F917F916F915F914F913F9161
:100F50002F910F900BBE0F900FBE0F901F90189502
:100F60001F920F920FB60F9211242F933F938F93DE
:100F70009F93AF93BF938091E0049091E104A0917F
:100F8000E204B091E3043091E4040196A11DB11D87
:100F9000232F2D5F2D3720F02D570196A11DB11D58
:100FA0002093E4048093E0049093E104A093E2048E
:100FB000B093E3048091DC049091DD04A091DE0401
:100FC000B091DF040196A11DB11D8093DC049093C4
:100FD000DD04A093DE04B093DF04BF91AF919F9135
:100FE0008F913F912F910F900FBE0F901F901895EA
:100FF0009FB7F8942091DC043091DD044091DE0429
:101000005091DF0486B5A89B06C08F3F21F02F5F6B
:101010003F4F4F4F5F4F9FBF542F432F322F2227F9
:10102000280F311D411D511D82E0220F331F441F27
:10103000551F8A95D1F7B901CA010895789484B5EE
:10104000826084BD84B5816084BD85B5826085BDC4
:1010500085B5816085BDEEE6F0E0808181608083AA
:10106000E1E8F0E01082808182608083808181608D
:101070008083E0E8F0E0808181608083E1EBF0E054
:10108000808184608083E0EBF0E0808181608083F8
:10109000E1E9F0E0808182608083808181608083EB
:1010A000E0E9F0E0808181608083E1EAF0E0808126
:1010B00082608083808181608083E0EAF0E08081CB
:1010C00081608083E1E2F1E08081826080838081C1
:1010D00081608083E0E2F1E0808181608083EAE7E3
:1010E000F0E0808184608083808182608083808161
:1010F000816080838081806880831092C100089520
:10110000EF92FF920F931F93D701ED91FC911197EE
:10111000E00FF11F1082ED91FC911197319611961D
:10112000FC93EE93E00FF11F1082ED91FC9111976B
:1011300031961196FC93EE93E00FF11F675F608389
:10114000ED91FC91119731961196FC93EE93E00F7F
:10115000F11F4083ED91FC91119731961196FC930C
:10116000EE93E00FF11F20838D919C9111970196D2
:101170008D939C9381E01F910F91FF90EF900895C4
:10118000EF92FF920F931F93CF93DF938B01DA01BE
:10119000CD91DC9111978FEF9FEF60E070E021E23D
:1011A000E22E20E1F22E1AC0F801E60FF71FF081BF
:1011B000E0E08E279F2720E030E0AC01440F551F70
:1011C00097FF04C0CA018E259F2501C0CA012F5F69
:1011D0003F4F2830310589F76F5F7F4F6C177D07D0
:1011E00018F3C00FD11F8883ED91FC9111973196B0
:1011F0001196FC93EE93E00FF11F9083ED91FC911B
:10120000119731961196FC93EE93E00FF11F108227
:10121000ED91FC91119731961196FC93EE93E00FAE
:10122000F11F10828D919C91119701968D939C9343
:1012300081E0DF91CF911F910F91FF90EF90089582
:101240004F925F926F927F928F929F92AF92BF92D6
:10125000CF92DF92EF92FF920F931F93DF93CF9382
:101260000F920F92CDB7DEB72C01E62FB42EA52E2C
:10127000390147011A821982B901660F771F660F7B
:10128000771F4E2F20E087017E010894E11CF11C9E
:101290000E9480082B2D3A2DC901DC0160E070E02E
:1012A00025C02C9111963C91119712964C91129752
:1012B00013965C91139789819A81F401E80FF91FC5
:1012C00020830196F401E80FF91F30830196F401A1
:1012D000E80FF91F40830196F401E80FF91F5083CE
:1012E00001969A8389836F5F7F4F14966615770501
:1012F000C0F2C201B401AE014F5F5F4F0E94C0084F
:1013000089819A81F601918380830F900F90CF910C
:10131000DF911F910F91FF90EF90DF90CF90BF90E2
:10132000AF909F908F907F906F905F904F900895B7
:1013300008950895CF93DF93EB01688179818A81C5
:101340009B8120E030E040E85FE30E94A60A88230A
:1013500081F08EE394E040E056E960E070E00E94A6
:101360009D0280E090E0A0E8BFE388839983AA8390
:10137000BB83DF91CF910895AF92BF92CF92DF925E
:10138000EF92FF920F931F93DF93CF93CDB7DEB70A
:10139000C650D4400FB6F894DEBF0FBECDBF7C015F
:1013A000FB018A01608171818281938120E030E0BC
:1013B00040E85FE30E94A60A8823C1F51A821982D9
:1013C000F8016081F70180819181A281B3818B83D3
:1013D0009C83AD83BE8307E0A02EB12CAC0EBD1E56
:1013E00085EE94E0AE014D5F5F4F21E030E000E01C
:1013F00014E075016E010894C11CD11C0E942009E3
:1014000089819A810D9791F400E010E00AC0F701FC
:10141000E00FF11F8EE394E060810E948E030F5F66
:101420001F4F89819A810817190788F3CA5FDB4F1C
:101430000FB6F894DEBF0FBECDBFCF91DF911F91E5
:101440000F91FF90EF90DF90CF90BF90AF900895F5
:1014500008951092E7041092E6041092EC041092A2
:10146000ED041092EE041092EF0480E090E0A0E012
:10147000B0E08093E8049093E904A093EA04B09369
:10148000EB0408958CEE94E068EE74E044E052E0E2
:1014900021E030E00E949A09089580910002909125
:1014A0000102A0910202B09103028093EC04909398
:1014B000ED04A093EE04B093EF048CEE94E068EE9C
:1014C00074E044E052E021E030E00E94BC0908955D
:1014D000AF92BF92CF92DF92EF92FF920F931F9342
:1014E000CF93DF930E941E080E94290AC0911B021D
:1014F000D0911C02AA24BB24650115C00E94F807E4
:101500007B018C01DC01CB018A199B09AC09BD0967
:1015100080539547A040B04030F00E944D0A0E9491
:10152000420A5701680188819981892B39F30E9409
:10153000280A80E090E0DF91CF911F910F91FF90FA
:10154000EF90DF90CF90BF90AF90089503D008F454
:1015500081E00895990F0008550FAA0BE0E8FEEF0F
:1015600016161706E807F907C0F012161306E40767
:10157000F50798F0621B730B840B950B39F40A2660
:1015800061F0232B242B252B21F408950A2609F43E
:10159000A140A6958FEF811D811D0895629FD00106
:1015A000739FF001829FE00DF11D649FE00DF11D1E
:1015B000929FF00D839FF00D749FF00D659FF00DCD
:1015C0009927729FB00DE11DF91F639FB00DE11DBA
:1015D000F91FBD01CF0111240895A1E21A2EAA1B03
:1015E000BB1BFD010DC0AA1FBB1FEE1FFF1FA217D3
:1015F000B307E407F50720F0A21BB30BE40BF50BD0
:10160000661F771F881F991F1A9469F76095709558
:10161000809590959B01AC01BD01CF010895EE0F1F
:10162000FF1F0590F491E02D199410E0CAEED0E070
:1016300004C0FE010E94110B2296CC3ED107C9F7CF
:04164000F894FFCF4C
:10164400D00F494002000000008E035505240355C5
:0E1654000335037E03000000001305E60400CA
:00000001FF
