:100000000C9405010C9430060C9461060C94920635
:100010000C94C3060C94F4060C9425070C94560714
:100020000C9487070C9432010C9432010C94320129
:100030000C9432010C9432010C9432010C94320174
:100040000C9432010C9432010C9432010C94320164
:100050000C9432010C9432010C9432010C94B807C8
:100060000C9432010C9434010C9430020C94320143
:100070000C9432010C9432010C9432010C94320134
:100080000C9432010C9432010C9432010C94320124
:100090000C9473010C946F020C9432010C947B0A43
:1000A0000C9432010C9432010C9432010C94320104
:1000B0000C9432010C9432010C9432010C943201F4
:1000C0000C9432010C9432010C9432010C94B20164
:1000D0000C94AE020C9432010C94F1010C94ED02DC
:1000E0000C94320100002100240027002A002D007A
:1000F0003000330001010000040107010A01000083
:100100002200250028002B002E00310034000201BF
:100110000000050108010B0100002000230026005B
:1001200029002C002F00320000010000030106010D
:10013000090105050505070508080808020202026D
:100140000A0A080804040404010101010101010173
:100150000303030303030303040707070C0C0C0C3E
:100160000C0C0C0C02020202060606060606060627
:100170000B0B0B0B0B0B0B0B0102102020080810B4
:100180002040102040800201020108040201010207
:1001900004081020408080402010080402018004E0
:1001A000020180402010080402010804020101023B
:1001B0000408102040800102040810204080000044
:1001C000090A02080B0C0D070603040100000000D9
:1001D000000000000000000000000000000000001F
:1001E0000000000000000000000011100F000000DF
:1001F00000000000000000000000000000000000FF
:1002000000000000D6030C051F0D11241FBECFEF08
:10021000D1E2DEBFCDBF00E00CBF12E0A0E0B2E053
:10022000ECE7F1E200E00BBF02C007900D92AA32AA
:10023000B107D9F71BBE15E0AAE2B2E001C01D92DA
:10024000A73EB107E1F712E0CAE0D2E004C022976E
:10025000FE010E94B810C430D107C9F70E949E0960
:100260000C94BC100C9400001F920F920FB60F92CA
:100270000BB60F9211242F933F934F938F939F931D
:10028000EF93FF938091C00082FD1DC04091C60096
:1002900020916A0230916B022F5F3F4F2F733070B5
:1002A00080916C0290916D022817390771F0E091EE
:1002B0006A02F0916B02E65DFD4F408330936B0262
:1002C00020936A0202C08091C600FF91EF919F9136
:1002D0008F914F913F912F910F900BBE0F900FBEBA
:1002E0000F901F9018951F920F920FB60F920BB69A
:1002F0000F9211242F933F934F938F939F93EF93DC
:10030000FF938091C80082FD1DC04091CE002091D6
:10031000F2023091F3022F5F3F4F2F7330708091C4
:10032000F4029091F5022817390771F0E091F2027A
:10033000F091F302EE54FD4F40833093F30220938B
:10034000F20202C08091CE00FF91EF919F918F91B8
:100350004F913F912F910F900BBE0F900FBE0F90BA
:100360001F9018951F920F920FB60F920BB60F9217
:1003700011242F933F934F938F939F93EF93FF936A
:100380008091D00082FD1DC04091D60020917A035B
:1003900030917B032F5F3F4F2F73307080917C0330
:1003A00090917D032817390771F0E0917A03F0915D
:1003B0007B03E65CFC4F408330937B0320937A03FE
:1003C00002C08091D600FF91EF919F918F914F9144
:1003D0003F912F910F900BBE0F900FBE0F901F906B
:1003E00018951F920F920FB60F920BB60F92112411
:1003F0002F933F934F938F939F93EF93FF9380910E
:10040000300182FD1DC040913601209102043091DF
:1004100003042F5F3F4F2F7330708091040490913D
:1004200005042817390771F0E0910204F0910304E4
:10043000EE53FC4F4083309303042093020402C028
:1004400080913601FF91EF919F918F914F913F9154
:100450002F910F900BBE0F900FBE0F901F9018950D
:100460001F920F920FB60F920BB60F9211242F937B
:100470003F938F939F93EF93FF932091AE02309120
:10048000AF028091B0029091B1022817390731F480
:100490008091C1008F7D8093C10014C0E091B002B3
:1004A000F091B102E259FD4F20818091B00290910C
:1004B000B10201968F7390709093B1028093B00255
:1004C0002093C600FF91EF919F918F913F912F91C3
:1004D0000F900BBE0F900FBE0F901F9018951F929C
:1004E0000F920FB60F920BB60F9211242F933F93DA
:1004F0008F939F93EF93FF932091360330913703AF
:1005000080913803909139032817390731F480918D
:10051000C9008F7D8093C90014C0E0913803F09129
:100520003903EA50FD4F20818091380390913903BF
:1005300001968F73907090933903809338032093C2
:10054000CE00FF91EF919F918F913F912F910F904E
:100550000BBE0F900FBE0F901F9018951F920F9219
:100560000FB60F920BB60F9211242F933F938F93D8
:100570009F93EF93FF932091BE033091BF0380912F
:10058000C0039091C1032817390731F48091D1003D
:100590008F7D8093D10014C0E091C003F091C1031E
:1005A000E258FC4F20818091C0039091C1030196D5
:1005B0008F7390709093C1038093C0032093D600F3
:1005C000FF91EF919F918F913F912F910F900BBED3
:1005D0000F900FBE0F901F9018951F920F920FB69D
:1005E0000F920BB60F9211242F933F938F939F93EB
:1005F000EF93FF9320914604309147048091480483
:10060000909149042817390731F4809131018F7D89
:100610008093310114C0E0914804F0914904EA5FED
:10062000FB4F2081809148049091490401968F737B
:100630009070909349048093480420933601FF9171
:10064000EF919F918F913F912F910F900BBE0F9043
:100650000FBE0F901F901895DC011C96ED91FC9138
:100660001D97E05CFF4F2191319180819181281B82
:10067000390B2F733070C9010895DC011C96ED9180
:10068000FC911D97E05CFF4F20813181E054F040E8
:10069000DF01AE5BBF4F8D919C91119728173907F1
:1006A00019F42FEF3FEF07C08D919C91E80FF91FD0
:1006B0008081282F30E0C9010895DC011C96ED915E
:1006C000FC911D97E05CFF4F20813181E054F040A8
:1006D000DF01AE5BBF4F8D919C91119728173907B1
:1006E00019F42FEF3FEF10C08D919C911197E80FF7
:1006F000F91F20818D919C91119701968F739070B5
:1007000011969C938E9330E0C9010895DC01919677
:100710008C919197882339F05496ED91FC915597DF
:10072000808186FFF9CF91961C920895CF93DF9335
:10073000EC01EE85FF85E05CFF4F20813181E054C4
:10074000F0402F5F3F4F2F733070DF01AE5BBF4F24
:100750008D919C91119728173907D1F3E05CFF4FD9
:1007600080819181E054F040E80FF91F6083EE85AD
:10077000FF85E05CFF4F31832083EE89FF89208174
:1007800081E090E00F8C02C0880F991F0A94E2F775
:10079000282B208381E089A3EC89FD8980818064F6
:1007A000808381E090E0DF91CF9108951F931092B4
:1007B0004D0410924C0428EE33E040E050E02093CA
:1007C0004E0430934F04409350045093510466E01C
:1007D00072E070934B0460934A048AE292E0909333
:1007E0005704809356048EE692E0909359048093C8
:1007F000580485EC90E090935B0480935A0484EC59
:1008000090E090935D0480935C0480EC90E0909382
:100810005F0480935E0481EC90E090936104809388
:10082000600482EC90E0909363048093620486EC11
:1008300090E0909365048093640414E01093660440
:10084000B3E0B0936704A7E0A0936804F5E0F093E9
:100850006904E1E0E0936A0410926F0410926E0460
:100860002093700430937104409372045093730486
:1008700070936D0460936C0482EB92E09093790422
:100880008093780486EF92E090937B0480937A04BF
:100890008DEC90E090937D0480937C048CEC90E050
:1008A00090937F0480937E0488EC90E09093810481
:1008B0008093800489EC90E0909383048093820479
:1008C0008AEC90E090938504809384048EEC90E011
:1008D000909387048093860410938804B0938904CE
:1008E000A0938A04F0938B04E0938C0410929104FB
:1008F00010929004209392043093930440939404B4
:100900005093950470938F0460938E048AE393E070
:1009100090939B0480939A048EE793E090939D04B8
:1009200080939C0485ED90E090939F0480939E04B7
:1009300084ED90E09093A1048093A00480ED90E07A
:100940009093A3048093A20481ED90E09093A5047A
:100950008093A40482ED90E09093A7048093A60472
:1009600086ED90E09093A9048093A8041093AA04C4
:10097000B093AB04A093AC04F093AD04E093AE0449
:100980001092B3041092B2042093B4043093B504CF
:100990004093B6045093B7047093B1046093B004CD
:1009A00082EC93E09093BD048093BC0486E094E0D5
:1009B0009093BF048093BE0485E391E09093C104BB
:1009C0008093C00484E391E09093C3048093C204B5
:1009D00080E391E09093C5048093C40481E391E0A7
:1009E0009093C7048093C60482E391E09093C90476
:1009F0008093C80486E391E09093CB048093CA046B
:100A00001093CC04B093CD04A093CE04F093CF0404
:100A1000E093D0041F91089586E192E09093D3046F
:100A20008093D2041092D4041092D5041092D6046C
:100A30001092D70408958F929F92AF92BF92CF9257
:100A4000DF92EF92FF920F931F93CF93DF934C01AE
:100A50006B017C01AA24BB24C0E0D0E0C601F701F1
:100A600062814AE050E00E941E068C01C6016EE2DF
:100A70000E948705080F191FA00EB11E2196089429
:100A8000E11CF11CC330D10549F7C601F4016581B1
:100A90004AE050E00E941E069501280F391FC90147
:100AA000DF91CF911F910F91FF90EF90DF90CF904A
:100AB000BF90AF909F908F900895CF92DF92EF926A
:100AC000FF920F931F93CF93DF937C016B018A01F9
:100AD000C0E0D0E00FC0D6016D916D01D701ED915E
:100AE000FC910190F081E02DC7011995C80FD91F25
:100AF000015010400115110571F7CE01DF91CF9122
:100B00001F910F91FF90EF90DF90CF900895DC013F
:100B1000ED91FC910190F081E02D19950895CF930E
:100B2000DF93EC016115710519F420E030E00FC08E
:100B3000DB010D900020E9F71197A61BB70BE881A8
:100B4000F9810280F381E02DAD0119959C01C90165
:100B5000DF91CF9108954F925F927F928F929F92F3
:100B6000AF92BF92CF92DF92EF92FF920F931F93BB
:100B7000DF93CF93CDB7DEB7A1970FB6F894DEBF62
:100B80000FBECDBF2C01742ECB01223008F42AE019
:100B900019A231E2C32ED12CCC0EDD1E822E992457
:100BA000AA24BB24672D752FA50194010E949410DF
:100BB00079018A01C801B701A50194010E9475104D
:100BC000472D461B0894C108D1084A3014F4405DF3
:100BD00001C0495CF6014083E114F10401051105EF
:100BE00021F07E2C5F2DC801DDCFC201B6010E942D
:100BF0008F05A1960FB6F894DEBF0FBECDBFCF9183
:100C0000DF911F910F91FF90EF90DF90CF90BF90F9
:100C1000AF909F908F907F905F904F900895DC01F0
:100C20002115310541F4ED91FC910190F081E02D09
:100C3000642F199508950E94AB050895EF92FF92D5
:100C40000F931F939A01E62EFF2400E010E0B801F5
:100C5000A7010E940F061F910F91FF90EF9008953A
:100C60001F920F920FB60F920BB60F9211242F9373
:100C70003F934F935F936F937F938F939F93AF9324
:100C8000BF93EF93FF938091DC049091DD04892B57
:100C900029F0E091DC04F091DD041995FF91EF91CA
:100CA000BF91AF919F918F917F916F915F914F9184
:100CB0003F912F910F900BBE0F900FBE0F901F9082
:100CC00018951F920F920FB60F920BB60F92112428
:100CD0002F933F934F935F936F937F938F939F9344
:100CE000AF93BF93EF93FF938091DE049091DF0465
:100CF000892B29F0E091DE04F091DF041995FF9132
:100D0000EF91BF91AF919F918F917F916F915F9183
:100D10004F913F912F910F900BBE0F900FBE0F90F0
:100D20001F9018951F920F920FB60F920BB60F924D
:100D300011242F933F934F935F936F937F938F93E0
:100D40009F93AF93BF93EF93FF938091E0049091B3
:100D5000E104892B29F0E091E004F091E104199578
:100D6000FF91EF91BF91AF919F918F917F916F9183
:100D70005F914F913F912F910F900BBE0F900FBE3F
:100D80000F901F9018951F920F920FB60F920BB6EF
:100D90000F9211242F933F934F935F936F937F9301
:100DA0008F939F93AF93BF93EF93FF938091E20450
:100DB0009091E304892B29F0E091E204F091E3049F
:100DC0001995FF91EF91BF91AF919F918F917F9175
:100DD0006F915F914F913F912F910F900BBE0F90AC
:100DE0000FBE0F901F9018951F920F920FB60F9283
:100DF0000BB60F9211242F933F934F935F936F93F2
:100E00007F938F939F93AF93BF93EF93FF938091C3
:100E1000D8049091D904892B29F0E091D804F0915D
:100E2000D9041995FF91EF91BF91AF919F918F9147
:100E30007F916F915F914F913F912F910F900BBEDA
:100E40000F900FBE0F901F9018951F920F920FB624
:100E50000F920BB60F9211242F933F934F935F93F2
:100E60006F937F938F939F93AF93BF93EF93FF9372
:100E70008091DA049091DB04892B29F0E091DA0467
:100E8000F091DB041995FF91EF91BF91AF919F9184
:100E90008F917F916F915F914F913F912F910F9023
:100EA0000BBE0F900FBE0F901F9018951F920F92C0
:100EB0000FB60F920BB60F9211242F933F934F93BF
:100EC0005F936F937F938F939F93AF93BF93EF93B2
:100ED000FF938091E4049091E504892B29F0E0913F
:100EE000E404F091E5041995FF91EF91BF91AF9162
:100EF0009F918F917F916F915F914F913F912F9132
:100F00000F900BBE0F900FBE0F901F9018951F9261
:100F10000F920FB60F920BB60F9211242F933F939F
:100F20004F935F936F937F938F939F93AF93BF93F1
:100F3000EF93FF938091E6049091E704892B29F0C9
:100F4000E091E604F091E7041995FF91EF91BF91CC
:100F5000AF919F918F917F916F915F914F913F9151
:100F60002F910F900BBE0F900FBE0F901F901895F2
:100F70001F920F920FB60F9211242F933F938F93CE
:100F80009F93AF93BF938091EC049091ED04A09157
:100F9000EE04B091EF043091F0040196A11DB11D53
:100FA000232F2D5F2D3720F02D570196A11DB11D48
:100FB0002093F0048093EC049093ED04A093EE044E
:100FC000B093EF048091E8049091E904A091EA04C1
:100FD000B091EB040196A11DB11D8093E80490939C
:100FE000E904A093EA04B093EB04BF91AF919F9101
:100FF0008F913F912F910F900FBE0F901F901895DA
:101000008FB7F8942091EC043091ED044091EE04F8
:101010005091EF048FBFB901CA0108959FB7F894AA
:101020002091E8043091E9044091EA045091EB04E6
:1010300086B5A89B06C08F3F21F02F5F3F4F4F4FD3
:101040005F4F9FBF542F432F322F2227280F311D70
:10105000411D511D82E0220F331F441F551F8A95E9
:10106000D1F7B901CA010895789484B5826084BD2E
:1010700084B5816084BD85B5826085BD85B581609C
:1010800085BDEEE6F0E0808181608083E1E8F0E0FC
:101090001082808182608083808181608083E0E82B
:1010A000F0E0808181608083E1EBF0E0808184600A
:1010B0008083E0EBF0E0808181608083E1E9F0E013
:1010C000808182608083808181608083E0E9F0E0BC
:1010D000808181608083E1EAF0E0808182608083AA
:1010E000808181608083E0EAF0E08081816080839C
:1010F000E1E2F1E080818260808380818160808391
:10110000E0E2F1E0808181608083EAE7F0E08081C5
:10111000846080838081826080838081816080831D
:101120008081806880831092C1000895893009F41D
:1011300049C08A30A0F4843051F1853040F48230C7
:1011400079F1833000F5813009F063C026C0873023
:1011500079F1883098F5863009F05BC025C08D3074
:1011600009F442C08E3028F48B30B1F18C30C0F5D8
:101170002DC0803109F442C0813109F445C08F305F
:1011800009F047C037C0809180008F7703C08091FD
:1011900080008F7D80938000089584B58F7702C092
:1011A00084B58F7D84BD08958091B0008F7703C092
:1011B0008091B0008F7D8093B00008958091900061
:1011C0008F7707C0809190008F7D03C08091900041
:1011D000877F8093900008958091A0008F7707C04B
:1011E0008091A0008F7D03C08091A000877F8093B5
:1011F000A0000895809120018F7703C08091200185
:101200008F7D80932001089580912001877F8093B6
:1012100020010895FF920F931F93F62E482F50E060
:10122000CA0182549E4FFC012491CA0188589E4FE6
:10123000FC0114914E5C5E4FFA0104910023C9F049
:10124000222319F0822F0E949608E02FF0E0EE0F83
:10125000FF1FE250FF4FA591B4919FB7F894FF2074
:1012600021F48C911095812302C08C91812B8C9359
:101270009FBF1F910F91FF90089508951092D00580
:101280001092CF0582E1E5EDF5E0DF011D928A9530
:10129000E9F780E090E0A0E0B0E08093D105909382
:1012A000D205A093D305B093D4050895CF92DF92D1
:1012B000EF92FF920F931F9361EE75E0AB014C5FCD
:1012C0005F4F9B012C5030408B0108501040FB01B8
:1012D0003497CB016E5F7F4F7F01E1EDCE2EE5E0CD
:1012E000DE2E0E94DC0F1F910F91FF90EF90DF9098
:1012F000CF900895CF92DF92EF92FF920F931F93BA
:1013000061EE75E0AB014C5F5F4F9B012C503040AC
:101310008B0108501040FB013497CB016E5F7F4F6B
:101320007F01F1EDCF2EF5E0DF2E0E94650E1F91BB
:101330000F91FF90EF90DF90CF900895AF92BF9202
:10134000CF92DF92EF92FF920F931F93CF93DF9391
:101350000E9434080E943E09C0911802D0911902DF
:10136000AA24BB24650115C00E940E087B018C01D4
:10137000DC01CB018A199B09AC09BD098053954753
:10138000A040B04030F00E947A090E9456095701EF
:10139000680188819981892B39F30E943D0980E099
:1013A00090E0DF91CF911F910F91FF90EF90DF9030
:1013B000CF90BF90AF900895382F413210F040E0A9
:1013C00042C0809186058823E1F791E090938605DD
:1013D000209384058FEF809387051092620541501A
:1013E000409363054F5F9093610580916105330FD2
:1013F000832B8093610580918505813041F41092A3
:101400008505809161058093BB0085EC01C085EE68
:101410008093BC00809186058130E1F38091620564
:10142000841710F44091620520E030E00AC0FB010F
:10143000E20FF31FD901AC59BA4F8C9180832F5F13
:101440003F4F2417A0F3842F08950F931F93582F15
:10145000122F413210F081E045C08091860588232B
:10146000E1F782E080938605009384058FEF8093F7
:1014700087051092620540936305A4E6B5E0FB0181
:1014800002C081918D938E2F861B8417D0F310920A
:10149000610580916105550F852B809361058091D1
:1014A0008505813041F41092850580916105809316
:1014B000BB0085EC01C085EE8093BC001123A9F030
:1014C00080918605823089F4FBCF80918705803238
:1014D00011F482E007C080918705803311F084E029
:1014E00001C083E01F910F910895809187058F3F80
:1014F00061F780E0F7CF1F920F920FB60F920BB6F5
:101500000F9211242F933F934F935F936F937F9389
:101510008F939F93AF93BF93EF93FF938091B90005
:1015200090E0887F90708036910509F4F2C0813692
:101530009105CCF58832910509F47BC0893291057B
:10154000B4F48031910509F46FC0813191053CF408
:10155000009709F447C1089709F04FC165C0883169
:10156000910509F466C0809709F047C182C08034B4
:10157000910509F4A4C08134910544F480339105A8
:1015800009F482C0C89709F038C189C08035910537
:1015900009F489C08835910509F496C0883491050D
:1015A00009F02BC1AEC08839910509F413C18939FE
:1015B0009105ECF48837910509F4ABC089379105A2
:1015C0004CF48836910509F4A4C08037910509F0E0
:1015D00014C19FC08838910509F4FCC08039910579
:1015E00009F49DC08038910509F007C198C0803B7F
:1015F000910509F4C6C0813B91054CF4803A9105F0
:1016000009F49FC0883A910509F0F7C0BAC0803C40
:10161000910509F4E3C0883C910509F4DFC0883BDB
:10162000910509F0EAC0C2C0809161058093BB00BA
:10163000CFC09091620580916305981768F49091EE
:101640006205E92FF0E0EC59FA4F80818093BB00EE
:101650009F5F90936205BCC080918405882309F444
:101660004BC085ED8093BC008091BC0084FDFCCF15
:10167000C2C080E28093870585ED8093BC00809195
:10168000BC0084FDFCCFB7C080E38093870585ED67
:101690008093BC008091BC0084FDFCCFACC088E38B
:1016A000809387059BC0809162059091BB00E82FD5
:1016B000F0E0EC59FA4F90838F5F80936205909130
:1016C00062058091630582C0809162059091BB00A4
:1016D000E82FF0E0EC59FA4F90838F5F809362051A
:1016E00080918405882341F085ED8093BC00809132
:1016F000BC0084FDFCCF7FC081E08093850584EA37
:101700006EC085ED8093BC008091BC0084FDFCCF51
:1017100072C083E0809386051092880559C080913D
:101720008805803208F056C0809188059091BB00F2
:10173000E82FF0E0E757FA4F90838F5F809388059A
:1017400047C080918805803230F4E0918805F0E050
:10175000E757FA4F108285ED8093BC008091BC0062
:1017600084FDFCCF1092860560918805E091A90563
:10177000F091AA0589E895E070E019951092880526
:101780002DC084E0809386051092AB051092AC05C5
:10179000E091AD05F091AE0519958091AC058823D7
:1017A00029F481E08093AC051092AF059091AB05D0
:1017B000E92FF0E0E155FA4F80818093BB009F5FF5
:1017C0009093AB059091AB058091AC05981710F400
:1017D00085EC01C085E88093BC000FC085EC809348
:1017E000BC0009C01092870585ED8093BC008091F4
:1017F000BC0084FDFCCF10928605FF91EF91BF9154
:10180000AF919F918F917F916F915F914F913F9198
:101810002F910F900BBE0F900FBE0F901F90189539
:10182000413208F040E2862F61EF74E00E94DC094B
:101830001092110580931205089521E00E94100C6A
:1018400008950F93062F8091130564E175E0409190
:10185000350521E00E94250A1092340510923505C5
:10186000109236050F91089561E00E94210C0895B1
:10187000DF93CF930F92CDB7DEB7FC0169838091E0
:1018800036058823C9F080913505803238F081E033
:1018900090E09383828320E030E01AC08091340589
:1018A000E82FF0E0EC5EFA4F998190838F5F809390
:1018B0003405809335050AC080918605843031F463
:1018C00081E08093AC0589818093AF0521E030E011
:1018D000C9010F90CF91DF910895CF92DF92EF92DF
:1018E000FF920F931F93CF93DF936C018B017A01CB
:1018F000809136058823A1F0C0E0D0E00DC0D6016C
:10190000ED91FC91D801AC0FBD1F0190F081E02D4D
:10191000C6016C9119952196CE15DF0580F313C091
:10192000413288F480918605843069F4E092AC05F8
:10193000562FAFEAB5E0FB0102C081918D938E2F47
:10194000851B8417D0F3C701DF91CF911F910F91B1
:10195000FF90EF90DF90CF9008952091120530E036
:1019600080911105281B3109C90108954091110585
:1019700080911205481718F02FEF3FEF0AC0E42FAF
:10198000F0E0EF50FB4F8081282F30E04F5F409315
:101990001105C9010895E091110580911205E8171C
:1019A00018F0EFEFFFEF06C0F0E0EF50FB4F808143
:1019B000E82FF0E0CF0108950895FF920F931F9351
:1019C000CF93DF93F42E122F032F91E090933605DF
:1019D00080931305109234051092350587E395E046
:1019E0000E94380C212F302FC901EC0110E006C0F5
:1019F00087E395E069910E94380C1F5F1F15C0F3C3
:101A000087E395E00E94340C90E0882309F491E08C
:101A1000892FDF91CF911F910F91FF900895DF9350
:101A2000CF930F92CDB7DEB7498341E09E012F5F80
:101A30003F4F0E94DD0C0F90CF91DF9108951092DF
:101A40003A051092390588EE93E0A0E0B0E080936B
:101A50003B0590933C05A0933D05B0933E058EE178
:101A600092E0909338058093370588E6809343058C
:101A700089E68093520508952F923F924F925F928C
:101A80006F927F928F929F92AF92BF92CF92DF928E
:101A9000EF92FF920F931F93DF93CF9300D00F929B
:101AA0000F92CDB7DEB7882E6983942E3B832A83AD
:101AB0000E9400085B016C01FF24EE24292C3324D2
:101AC00028016624772461C021E0209336058092A6
:101AD0001305109234051092350587E395E069816E
:101AE0000E94380C87E395E00E94340C31E030937B
:101AF0003605809213051092340510923505A10128
:101B00004E1951094132510514F040E250E087E38B
:101B100095E0682D0E941D0C8F2D992787FD9095CB
:101B2000EA81FB818E0F9F1F9D838C830FC0E92F5D
:101B3000F0E0EF50FB4F8081282F9F5F90931105BD
:101B4000EC81FD812193FD83EC83F3949091120548
:101B500080911105981709F450C00115110561F025
:101B60000E9400086A197B098C099D096415750596
:101B70008605970508F041C09091110580911205E6
:101B80009817A8F22FEF3FEFDBCFE91408F49CCFB2
:101B900001151105C9F00E9400086A197B098C091A
:101BA0009D09980140E050E062177307840795078C
:101BB00058F02F2D332727FD3095892D90E02817D9
:101BC000390714F4FF24FA948F2D0F900F900F9083
:101BD0000F900F90CF91DF911F910F91FF90EF9099
:101BE000DF90CF90BF90AF909F908F907F906F903D
:101BF0005F904F903F902F90089587E395E00E946B
:101C0000340C892DF0E2F91508F480E2E80EBDCF1E
:101C1000EF92FF920F931F937C019C012F5F3F4F28
:101C20000091000210910102FC01808163E442E016
:101C30000E943C0DF701918180E0228130E0282B49
:101C4000392BC9011F910F91FF90EF900895EF92EA
:101C5000FF920F931F937C019C012F5F3F4F0091D8
:101C6000000210910102FC0180816FE342E00E94BA
:101C70003C0DF701918180E0228130E0282B392B47
:101C8000C9011F910F91FF90EF900895EF92FF927D
:101C90000F931F937C019C012F5F3F4F0091000227
:101CA00010910102FC0180816DE342E00E943C0D35
:101CB000F701918180E0228130E0282B392BC90186
:101CC0001F910F91FF90EF9008956F927F928F92E6
:101CD0009F92AF92BF92CF92DF92EF92FF920F93BB
:101CE0001F93CF93DF93EC015B014A013901F601A9
:101CF000608171818281938120E030E040E85FE380
:101D00000E941010882309F047C083E495E00E94E8
:101D1000080E9983888383E495E00E94460EF501BE
:101D20009183808383E495E00E94270EF4019183E0
:101D3000808382E595E00E94080EAA2797FDA09572
:101D4000BA2FBC01CD010E941610F301608371838C
:101D50008283938382E595E00E94460EAA2797FD31
:101D6000A095BA2FBC01CD010E941610F801608326
:101D700071838283938382E595E00E94270EAA27D0
:101D800097FDA095BA2FBC01CD010E941610F70156
:101D90006083718382839383DF91CF911F910F9131
:101DA000FF90EF90DF90CF90BF90AF909F908F907B
:101DB0007F906F9008950F931F93FA01890141E07E
:101DC0009F010E943C0D1F910F910895DF92EF92A9
:101DD000FF920F931F93DF93CF930F92CDB7DEB790
:101DE000E82ED62EF42E122F2091000230910102FF
:101DF000AE014F5F5F4F0E94DB0E882341F1212F20
:101E000030E04F2D50E04F5F5F4F421B530B81E09E
:101E100090E002C0880F991F1A95E2F70197042EEF
:101E200002C0880F991F0A94E2F7202F30E002C009
:101E3000220F331F4A95E2F7482F409559814523D9
:101E40008223482B49838E2D6D2D0E940F0D0F90FC
:101E5000CF91DF911F910F91FF90EF90DF90089548
:101E60000F93FC01062F80816BE642E023E00E9485
:101E7000E60E0F9108950F93FC01062F80816CE10F
:101E800044E022E00E94E60E0F9108950F93FC01BA
:101E9000062F80816BE144E022E00E94E60E0F9164
:101EA00008950F93FC01062F80816AE142E023E050
:101EB0000E94E60E0F910895EF92FF920F931F93E9
:101EC000DF93CF930F92CDB7DEB7F82EE62E042F17
:101ED000122F2091000230910102AE014F5F5F4F3F
:101EE0000E94DB0E2981112351F081E090E002C0B5
:101EF000880F991F0A95E2F7422F482B0AC081E00C
:101F000090E002C0880F991F0A95E2F7482F40958C
:101F1000422349838F2D6E2D0E940F0D0F90CF917C
:101F2000DF911F910F91FF90EF900895FC01262FF4
:101F300080816BE646E00E945C0F08950F931F932B
:101F40008C0161E00E94300FC80160E00E94460FE2
:101F5000C80160E00E943B0FC80160E00E94960F3C
:101F60001F910F9108951092860581E0809384055A
:101F70001092850584E161E00E940A0985E161E033
:101F80000E940A09E9EBF0E080818E7F80838081E6
:101F90008D7F808388E48093B80085E48093BC00C3
:101FA00008951092110510921205109234051092A6
:101FB00035050E94B30F0895CF92DF92CF93DF9340
:101FC000E601688179818A819B8120E030E040E8E8
:101FD0005FE30E9410108823F1F087E395E00E94F0
:101FE000D10F83E495E065E00E94510F83E495E012
:101FF0000E949E0F82E595E065E00E94510F82E508
:1020000095E00E949E0F80E090E0A0E8BFE3888307
:102010009983AA83BB83DF91CF91DF90CF900895FE
:1020200040D008F481E00895E89409C097FB3EF49D
:1020300090958095709561957F4F8F4F9F4F992315
:10204000A9F0F92F96E9BB279395F6958795779593
:102050006795B795F111F8CFFAF4BB0F11F460FF53
:102060001BC06F5F7F4F8F4F9F4F16C0882311F0AB
:1020700096E911C0772321F09EE8872F762F05C0BF
:10208000662371F096E8862F70E060E02AF09A955A
:10209000660F771F881FDAF7880F9695879597F94F
:1020A0000895990F0008550FAA0BE0E8FEEF1616E9
:1020B0001706E807F907C0F012161306E407F5073C
:1020C00098F0621B730B840B950B39F40A2661F0B0
:1020D000232B242B252B21F408950A2609F4A14053
:1020E000A6958FEF811D811D0895629FD001739F7A
:1020F000F001829FE00DF11D649FE00DF11D929FA4
:10210000F00D839FF00D749FF00D659FF00D9927E2
:10211000729FB00DE11DF91F639FB00DE11DF91F06
:10212000BD01CF0111240895A1E21A2EAA1BBB1BE9
:10213000FD010DC0AA1FBB1FEE1FFF1FA217B30793
:10214000E407F50720F0A21BB30BE40BF50B661FA9
:10215000771F881F991F1A9469F76095709580956D
:1021600090959B01AC01BD01CF010895EE0FFF1FBB
:0C2170000590F491E02D1994F894FFCF35
:10217C00E8030000000096035D052C035D033D039E
:10218C008603000000001B05CF0500000000380C82
:0A219C006D0CAD0CB60CCB0CDC0C86
:00000001FF
