:100000000C9476000C945B060C948C060C94BD0644
:100010000C94EE060C941F070C9450070C94810767
:100020000C94B2070C94A3000C94A3000C94A300AE
:100030000C94A3000C94A3000C94A3000C94A300B4
:100040000C94A3000C94A3000C94A3000C94A300A4
:100050000C94A3000C94A3000C94A3000C94E3074D
:100060000C94A3000C94A5000C94A1010C94A30083
:100070000C94A3000C94A3000C94A3000C94A30074
:100080000C94A3000C94A3000C94A3000C94A30064
:100090000C94E4000C94E0010C94A3000C94A300D5
:1000A0000C94A3000C94A3000C94A3000C94A30044
:1000B0000C94A3000C94A3000C94A3000C94A30034
:1000C0000C94A3000C94A3000C94A3000C942301A3
:1000D0000C941F020C94A3000C9462010C945E0219
:1000E0000C94A300CE030405CB09CC0911241FBE38
:1000F000CFEFD1E2DEBFCDBF00E00CBF12E0A0E049
:10010000B2E0EEE5F9E100E00BBF02C007900D920E
:10011000A834B107D9F71BBE15E0A8E4B2E001C0CE
:100120001D92A633B107E1F710E0CAEED0E004C09B
:100130002297FE010E949E0CC43ED107C9F70E947F
:10014000F50B0C94A20C0C9400001F920F920FB6AA
:100150000F920BB60F9211242F933F934F938F93CF
:100160009F93EF93FF938091C00082FD1DC040914B
:10017000C60020918802309189022F5F3F4F2F7374
:10018000307080918A0290918B022817390771F0A4
:10019000E0918802F0918902E85BFD4F4083309343
:1001A00089022093880202C08091C600FF91EF91DE
:1001B0009F918F914F913F912F910F900BBE0F9078
:1001C0000FBE0F901F9018951F920F920FB60F92AF
:1001D0000BB60F9211242F933F934F938F939F93BE
:1001E000EF93FF938091C80082FD1DC04091CE0027
:1001F00020911003309111032F5F3F4F2F73307008
:1002000080911203909113032817390771F0E09140
:100210001003F0911103E053FD4F4083309311031D
:100220002093100302C08091CE00FF91EF919F9127
:100230008F914F913F912F910F900BBE0F900FBE5A
:100240000F901F9018951F920F920FB60F920BB63A
:100250000F9211242F933F934F938F939F93EF937C
:10026000FF938091D00082FD1DC04091D600209167
:100270009803309199032F5F3F4F2F733070809117
:100280009A0390919B032817390771F0E091980326
:10029000F0919903E85AFC4F4083309399032093DF
:1002A000980302C08091D600FF91EF919F918F91AA
:1002B0004F913F912F910F900BBE0F900FBE0F905B
:1002C0001F9018951F920F920FB60F920BB60F92B8
:1002D00011242F933F934F938F939F93EF93FF930B
:1002E0008091300182FD1DC0409136012091200493
:1002F000309121042F5F3F4F2F7330708091220483
:10030000909123042817390771F0E0912004F091AF
:100310002104E052FC4F40833093210420932004B9
:1003200002C080913601FF91EF919F918F914F9183
:100330003F912F910F900BBE0F900FBE0F901F900B
:1003400018951F920F920FB60F920BB60F921124B1
:100350002F933F938F939F93EF93FF932091CC0222
:100360003091CD028091CE029091CF0228173907AB
:1003700031F48091C1008F7D8093C10014C0E09161
:10038000CE02F091CF02E457FD4F20818091CE0242
:100390009091CF0201968F7390709093CF028093CB
:1003A000CE022093C600FF91EF919F918F913F91D4
:1003B0002F910F900BBE0F900FBE0F901F901895AE
:1003C0001F920F920FB60F920BB60F9211242F931C
:1003D0003F938F939F93EF93FF932091540330911A
:1003E000550380915603909157032817390731F42C
:1003F0008091C9008F7D8093C90014C0E09156039D
:10040000F0915703EC5EFC4F208180915603909150
:10041000570301968F739070909357038093560300
:100420002093CE00FF91EF919F918F913F912F915B
:100430000F900BBE0F900FBE0F901F9018951F923C
:100440000F920FB60F920BB60F9211242F933F937A
:100450008F939F93EF93FF932091DC033091DD0303
:100460008091DE039091DF032817390731F48091E2
:10047000D1008F7D8093D10014C0E091DE03F09114
:10048000DF03E456FC4F20818091DE039091DF036F
:1004900001968F7390709093DF038093DE03209317
:1004A000D600FF91EF919F918F913F912F910F90E7
:1004B0000BBE0F900FBE0F901F9018951F920F92BA
:1004C0000FB60F920BB60F9211242F933F938F9379
:1004D0009F93EF93FF932091640430916504809182
:1004E0006604909167042817390731F4809131012F
:1004F0008F7D8093310114C0E0916604F091670410
:10050000EC5DFB4F20818091660490916704019619
:100510008F739070909367048093660420933601E4
:10052000FF91EF919F918F913F912F910F900BBE73
:100530000F900FBE0F901F901895AF92BF92DF9251
:10054000EF92FF920F931F93CF93DF93EC017A0109
:100550008B01DD24403081EE580780E0680780E0A1
:10056000780711F0DD24D39491E0A92EB12CEC8909
:10057000FD89DD2069F0C50108A002C0880F991F20
:100580000A94E2F7808360E079E08DE390E005C0B3
:10059000108260E874E88EE190E0A80197010E9463
:1005A0007A0C215030404040504056954795379541
:1005B000279580E12030380720F0DD2011F0DD2480
:1005C000D6CFE889F9893083EA89FB89208319A28B
:1005D000EE89FF89408121E030E0C9010C8C02C026
:1005E000880F991F0A94E2F7482B4083EE89FF8910
:1005F0004081C9010D8C02C0880F991F0A94E2F74F
:10060000482B4083EE89FF894081C9010E8C02C0CE
:10061000880F991F0A94E2F7482B4083EE89FF89DF
:1006200080810F8C02C0220F331F0A94E2F72095BD
:1006300028232083DF91CF911F910F91FF90EF909E
:10064000DF90BF90AF900895DC011C96ED91FC9176
:100650001D97E05CFF4F2191319180819181281B92
:10066000390B2F733070C9010895DC011C96ED9190
:10067000FC911D97E05CFF4F20813181E054F040F8
:10068000DF01AE5BBF4F8D919C9111972817390701
:1006900019F42FEF3FEF07C08D919C91E80FF91FE0
:1006A0008081282F30E0C9010895DC011C96ED916E
:1006B000FC911D97E05CFF4F20813181E054F040B8
:1006C000DF01AE5BBF4F8D919C91119728173907C1
:1006D00019F42FEF3FEF10C08D919C911197E80F07
:1006E000F91F20818D919C91119701968F739070C5
:1006F00011969C938E9330E0C9010895DC01919688
:100700008C919197882339F05496ED91FC915597EF
:10071000808186FFF9CF91961C920895CF93DF9345
:10072000EC01EE85FF85E05CFF4F20813181E054D4
:10073000F0402F5F3F4F2F733070DF01AE5BBF4F34
:100740008D919C91119728173907D1F3E05CFF4FE9
:1007500080819181E054F040E80FF91F6083EE85BD
:10076000FF85E05CFF4F31832083EE89FF89208184
:1007700081E090E00F8C02C0880F991F0A94E2F785
:10078000282B208381E089A3EC89FD898081806406
:10079000808381E090E0DF91CF9108951F931092C4
:1007A0006B0410926A0428EE33E040E050E020939E
:1007B0006C0430936D0440936E0450936F0463E3B4
:1007C00072E0709369046093680488E492E0909307
:1007D0007504809374048CE892E09093770480937E
:1007E000760485EC90E0909379048093780484EC0F
:1007F00090E090937B0480937A0480EC90E0909357
:100800007D0480937C0481EC90E090937F0480933E
:100810007E0482EC90E0909381048093800486ECC7
:1008200090E0909383048093820414E010938404F6
:10083000B3E0B0938504A7E0A0938604F5E0F093BD
:100840008704E1E0E093880410928D0410928C04F8
:1008500020938E0430938F0440939004509391041E
:1008600070938B0460938A0480ED92E090939704D8
:100870008093960484E193E0909399048093980484
:100880008DEC90E090939B0480939A048CEC90E024
:1008900090939D0480939C0488EC90E090939F0437
:1008A00080939E0489EC90E09093A1048093A0042F
:1008B0008AEC90E09093A3048093A2048EEC90E0E5
:1008C0009093A5048093A4041093A604B093A70466
:1008D000A093A804F093A904E093AA041092AF0493
:1008E0001092AE042093B0043093B1044093B2044C
:1008F0005093B3047093AD046093AC0488E593E027
:100900009093B9048093B8048CE993E09093BB046E
:100910008093BA0485ED90E09093BD048093BC046D
:1009200084ED90E09093BF048093BE0480ED90E04E
:100930009093C1048093C00481ED90E09093C30430
:100940008093C20482ED90E09093C5048093C40428
:1009500086ED90E09093C7048093C6041093C8047A
:10096000B093C904A093CA04F093CB04E093CC04E1
:100970001092D1041092D0042093D2043093D30467
:100980004093D4045093D5047093CF046093CE0465
:1009900080EE93E09093DB048093DA0484E294E0A9
:1009A0009093DD048093DC0485E391E09093DF0471
:1009B0008093DE0484E391E09093E1048093E0046B
:1009C00080E391E09093E3048093E20481E391E07B
:1009D0009093E5048093E40482E391E09093E7042C
:1009E0008093E60486E391E09093E9048093E80421
:1009F0001093EA04B093EB04A093EC04F093ED049D
:100A0000E093EE041F91089583E492E09093F10443
:100A10008093F0041092F2041092F3041092F40404
:100A20001092F50408958F929F92AF92BF92CF9249
:100A3000DF92EF92FF920F931F93CF93DF934C01BE
:100A40006B017C01AA24BB24C0E0D0E0C601F70101
:100A500062814AE050E00E9436068C01C6016EE2D7
:100A60000E947F05080F191FA00EB11E2196089441
:100A7000E11CF11CC330D10549F7C601F4016581C1
:100A80004AE050E00E9436069501280F391FC9013F
:100A9000DF91CF911F910F91FF90EF90DF90CF905A
:100AA000BF90AF909F908F900895CF92DF92EF927A
:100AB000FF920F931F93CF93DF937C016B018A0109
:100AC000C0E0D0E00FC0D6016D916D01D701ED916E
:100AD000FC910190F081E02DC7011995C80FD91F35
:100AE000015010400115110571F7CE01DF91CF9132
:100AF0001F910F91FF90EF90DF90CF900895DC0150
:100B0000ED91FC910190F081E02D19950895EF92FF
:100B1000FF920F931F938C01DC01ED91FC910190EA
:100B2000F081E02D6DE019957C01D801ED91FC91EB
:100B30000190F081E02DC8016AE019959C012E0D0D
:100B40003F1DC9011F910F91FF90EF900895CF9322
:100B5000DF93EC016115710519F420E030E00FC05E
:100B6000DB010D900020E9F71197A61BB70BE88178
:100B7000F9810280F381E02DAD0119959C01C90135
:100B8000DF91CF9108954F925F927F928F929F92C3
:100B9000AF92BF92CF92DF92EF92FF920F931F938B
:100BA000DF93CF93CDB7DEB7A1970FB6F894DEBF32
:100BB0000FBECDBF2C01742ECB01223008F42AE0E9
:100BC00019A231E2C32ED12CCC0EDD1E822E992427
:100BD000AA24BB24672D752FA50194010E947A0CCD
:100BE00079018A01C801B701A50194010E945B0C3B
:100BF000472D461B0894C108D1084A3014F4405DC3
:100C000001C0495CF6014083E114F10401051105BE
:100C100021F07E2C5F2DC801DDCFC201B6010E94FC
:100C2000A705A1960FB6F894DEBF0FBECDBFCF913A
:100C3000DF911F910F91FF90EF90DF90CF90BF90C9
:100C4000AF909F908F907F905F904F900895DC01C0
:100C50002115310541F4ED91FC910190F081E02DD9
:100C6000642F199508950E94C3050895EF92FF928D
:100C70000F931F939A01E62EFF2400E010E0B801C5
:100C8000A7010E9427061F910F91FF90EF900895F2
:100C9000EF92FF920F931F937C010E94A7058C0196
:100CA000C7010E948705080F191FC8011F910F91E6
:100CB000FF90EF9008951F920F920FB60F920BB610
:100CC0000F9211242F933F934F935F936F937F93D2
:100CD0008F939F93AF93BF93EF93FF938091FA0409
:100CE0009091FB04892B29F0E091FA04F091FB0428
:100CF0001995FF91EF91BF91AF919F918F917F9146
:100D00006F915F914F913F912F910F900BBE0F907C
:100D10000FBE0F901F9018951F920F920FB60F9253
:100D20000BB60F9211242F933F934F935F936F93C2
:100D30007F938F939F93AF93BF93EF93FF93809194
:100D4000FC049091FD04892B29F0E091FC04F091C2
:100D5000FD041995FF91EF91BF91AF919F918F91F4
:100D60007F916F915F914F913F912F910F900BBEAB
:100D70000F900FBE0F901F9018951F920F920FB6F5
:100D80000F920BB60F9211242F933F934F935F93C3
:100D90006F937F938F939F93AF93BF93EF93FF9343
:100DA0008091FE049091FF04892B29F0E091FE04CC
:100DB000F091FF041995FF91EF91BF91AF919F9131
:100DC0008F917F916F915F914F913F912F910F90F4
:100DD0000BBE0F900FBE0F901F9018951F920F9291
:100DE0000FB60F920BB60F9211242F933F934F9390
:100DF0005F936F937F938F939F93AF93BF93EF9383
:100E0000FF938091000590910105892B29F0E091D5
:100E10000005F09101051995FF91EF91BF91AF91F8
:100E20009F918F917F916F915F914F913F912F9102
:100E30000F900BBE0F900FBE0F901F9018951F9232
:100E40000F920FB60F920BB60F9211242F933F9370
:100E50004F935F936F937F938F939F93AF93BF93C2
:100E6000EF93FF938091F6049091F704892B29F07A
:100E7000E091F604F091F7041995FF91EF91BF917D
:100E8000AF919F918F917F916F915F914F913F9122
:100E90002F910F900BBE0F900FBE0F901F901895C3
:100EA0001F920F920FB60F920BB60F9211242F9331
:100EB0003F934F935F936F937F938F939F93AF93E2
:100EC000BF93EF93FF938091F8049091F904892BDD
:100ED00029F0E091F804F091F9041995FF91EF9150
:100EE000BF91AF919F918F917F916F915F914F9142
:100EF0003F912F910F900BBE0F900FBE0F901F9040
:100F000018951F920F920FB60F920BB60F921124E5
:100F10002F933F934F935F936F937F938F939F9301
:100F2000AF93BF93EF93FF938091020590910305D8
:100F3000892B29F0E0910205F09103051995FF91A5
:100F4000EF91BF91AF919F918F917F916F915F9141
:100F50004F913F912F910F900BBE0F900FBE0F90AE
:100F60001F9018951F920F920FB60F920BB60F920B
:100F700011242F933F934F935F936F937F938F939E
:100F80009F93AF93BF93EF93FF938091040590914C
:100F90000505892B29F0E0910405F09105051995C7
:100FA000FF91EF91BF91AF919F918F917F916F9141
:100FB0005F914F913F912F910F900BBE0F900FBEFD
:100FC0000F901F9018951F920F920FB60F92112439
:100FD0002F933F938F939F93AF93BF9380910A0575
:100FE00090910B05A0910C05B0910D0530910E0567
:100FF0000196A11DB11D232F2D5F2D3720F02D57F8
:101000000196A11DB11D20930E0580930A059093B2
:101010000B05A0930C05B0930D05809106059091EA
:101020000705A0910805B09109050196A11DB11D04
:101030008093060590930705A0930805B0930905D2
:10104000BF91AF919F918F913F912F910F900FBEC4
:101050000F901F9018959FB7F89420910605309136
:101060000705409108055091090586B5A89B06C063
:101070008F3F21F02F5F3F4F4F4F5F4F9FBF542F48
:10108000432F322F2227280F311D411D511D82E091
:10109000220F331F441F551F8A95D1F7B901CA018A
:1010A0000895789484B5826084BD84B5816084BDE0
:1010B00085B5826085BD85B5816085BDEEE6F0E0D1
:1010C000808181608083E1E8F0E01082808182602D
:1010D0008083808181608083E0E8F0E080818160AE
:1010E0008083E1EBF0E0808184608083E0EBF0E0DE
:1010F000808181608083E1E9F0E08081826080838B
:10110000808181608083E0E9F0E08081816080837C
:10111000E1EAF0E080818260808380818160808369
:10112000E0EAF0E0808181608083E1E2F1E08081AB
:1011300082608083808181608083E0E2F1E0808151
:1011400081608083EAE7F0E0808184608083808131
:1011500082608083808181608083808180688083D9
:101160001092C1000895EF92FF920F931F93D70141
:10117000ED91FC911197E00FF11F1082ED91FC9120
:10118000119731961196FC93EE93E00FF11F1082A8
:10119000ED91FC91119731961196FC93EE93E00F2F
:1011A000F11F675F6083ED91FC9111973196119665
:1011B000FC93EE93E00FF11F4083ED91FC911197AA
:1011C00031961196FC93EE93E00FF11F20838D91E1
:1011D0009C91119701968D939C9381E01F910F91A3
:1011E000FF90EF900895EF92FF920F931F93CF938C
:1011F000DF938B01DA01CD91DC9111978FEF9FEF97
:1012000060E070E021E2E22E20E1F22E1AC0F80147
:10121000E60FF71FF081E0E08E279F2720E030E007
:10122000AC01440F551F97FF04C0CA018E259F25AE
:1012300001C0CA012F5F3F4F2830310589F76F5F2A
:101240007F4F6C177D0718F3C00FD11F8883ED9176
:10125000FC91119731961196FC93EE93E00FF11FDC
:101260009083ED91FC91119731961196FC93EE933A
:10127000E00FF11F1082ED91FC91119731961196BC
:10128000FC93EE93E00FF11F10828D919C911197CA
:1012900001968D939C9381E0DF91CF911F910F91E7
:1012A000FF90EF9008954F925F926F927F928F928E
:1012B0009F92AF92BF92CF92DF92EF92FF920F93E5
:1012C0001F93DF93CF930F920F92CDB7DEB72C0110
:1012D000E62FB42EA52E390147011A821982B901D1
:1012E000660F771F660F771F4E2F20E087017E0164
:1012F0000894E11CF11C0E94B3082B2D3A2DC90162
:10130000DC0160E070E025C02C9111963C911197B2
:1013100012964C91129713965C91139789819A813A
:10132000F401E80FF91F20830196F401E80FF91F7B
:1013300030830196F401E80FF91F40830196F40110
:10134000E80FF91F508301969A8389836F5F7F4F5F
:10135000149666157705C0F2C201B401AE014F5F65
:101360005F4F0E94F30889819A81F60191838083FF
:101370000F900F90CF91DF911F910F91FF90EF9001
:10138000DF90CF90BF90AF909F908F907F906F90A5
:101390005F904F900895089508958F929F92DF93E4
:1013A000CF93CDB7DEB7F4016081718182819381E3
:1013B00020E030E040E85FE30E94330C882389F0AE
:1013C00088E694E040E056E960E070E00E949D020B
:1013D00080E090E0A0E8BFE3F40180839183A283E2
:1013E000B383CF91DF919F908F9008952F923F927A
:1013F0004F925F926F927F928F929F92AF92BF9225
:10140000CF92DF92EF92FF920F931F93DF93CF93D0
:10141000CDB7DEB7C452D4400FB6F894DEBF0FBECE
:10142000CDBF3C012B011A01CD5DDB4F39832883F1
:10143000C352D440F401608171818281938120E0A4
:1014400030E040E85FE30E94330C882309F088C055
:101450001A821982C65CDB4FE881F981CA53D440F5
:101460006081F30180819181A281B3818B839C8310
:10147000AD83BE83F20180819181A281B3818F838C
:101480009887A987BA87F10180819181A281B38170
:101490008B879C87AD87BE87CD5DDB4FE881F98167
:1014A000C352D44080819181A281B3818F87988B70
:1014B000A98BBA8BF80180819181A281B3818B8B3A
:1014C0009C8BAD8BBE8BF70180819181A281B38112
:1014D0008F8B988FA98FBA8FF60180819181A2811D
:1014E000B3818B8F9C8FAD8FBE8FF50180819181F1
:1014F000A281B3818F8F98A3A9A3BAA303E2A02EE0
:10150000B12CAC0EBD1E8FE095E0AE014D5F5F4F7C
:1015100028E030E000E014E075016E010894C11C81
:10152000D11C0E94530989819A81899799F400E01E
:1015300010E00AC0F701E00FF11F88E694E0608137
:101540000E948E030F5F1F4F89819A810817190728
:1015500088F306C088E694E060E072E00E944806E6
:10156000CC5DDB4F0FB6F894DEBF0FBECDBFCF9181
:10157000DF911F910F91FF90EF90DF90CF90BF9080
:10158000AF909F908F907F906F905F904F903F9023
:101590002F9008950895109211051092100580E281
:1015A000E6E1F5E0DF011D928A95E9F780E090E041
:1015B000A0E0B0E08093120590931305A09314056A
:1015C000B093150508958F929F92AF92BF92CF92DC
:1015D000DF92EF92FF920F931F93CF93DF9300D090
:1015E0000F9266E175E0AB01485F5F4F9B01245F9E
:1015F0003F4F8B01005F1F4FFB017496DB01589634
:101600008CE1A82EB12CA60EB71E8EE292E0CDB7CB
:10161000DEB79A83898381E090E09C838B83CB0142
:101620006C5F7F4F7F016D01E2E18E2EE5E09E2E23
:101630000E94CD090F900F900F900F90DF91CF91E6
:101640001F910F91FF90EF90DF90CF90BF90AF90E0
:101650009F908F9008958F929F92AF92BF92CF925A
:10166000DF92EF92FF920F931F9366E175E08091F6
:101670000E0290910F02A0911002B091110280937E
:10168000160590931705A0931805B093190580913E
:10169000120290911302A0911402B091150280934E
:1016A0001A0590931B05A0931C05B0931D05AB0173
:1016B000485F5F4F8091160290911702A091180227
:1016C000B091190280931E0590931F05A0932005E9
:1016D000B09321059B01245F3F4F80911A029091A6
:1016E0001B02A0911C02B0911D02809322059093D1
:1016F0002305A0932405B09325058B01005F1F4FA0
:1017000080911E0290911F02A0912002B0912102AF
:101710008093260590932705A0932805B09329056B
:10172000A4E1EA2EF12CE60EF71E809122029091A0
:101730002302A0912402B091250280932A05909360
:101740002B05A0932C05B0932D05F8E1CF2ED12CBD
:10175000C60ED71E8091260290912702A0912802E2
:10176000B091290280932E0590932F05A093300508
:10177000B0933105FB017C9680912A0290912B0257
:10178000A0912C02B0912D028093320590933305E5
:10179000A0933405B093350500D00F928EE292E00D
:1017A000ADB7BEB712969C938E93119781E090E0EF
:1017B00014969C938E931397CB016C5F7F4F5F01C0
:1017C000E2E18E2EE5E09E2E0E94F6090F900F902A
:1017D0000F900F901F910F91FF90EF90DF90CF909F
:1017E000BF90AF909F908F900895AF92BF92CF928D
:1017F000DF92EF92FF920F931F93CF93DF930E949C
:1018000051080E94CB0AC0914502D0914602AA24F9
:10181000BB24650115C00E942B087B018C01DC01F3
:10182000CB018A199B09AC09BD098055934CA04096
:10183000B04030F00E942B0B0E94E30A5701680170
:1018400088819981892B39F30E94CA0A80E090E04F
:10185000DF91CF911F910F91FF90EF90DF90CF908C
:10186000BF90AF90089503D008F481E00895990FD8
:101870000008550FAA0BE0E8FEEF16161706E8075A
:10188000F907C0F012161306E407F50798F0621B7B
:10189000730B840B950B39F40A2661F0232B242B50
:1018A000252B21F408950A2609F4A140A6958FEF6F
:1018B000811D811D0895629FD001739FF001829F59
:1018C000E00DF11D649FE00DF11D929FF00D839FCF
:1018D000F00D749FF00D659FF00D9927729FB00D6C
:1018E000E11DF91F639FB00DE11DF91FBD01CF017F
:1018F00011240895A1E21A2EAA1BBB1BFD010DC0E5
:10190000AA1FBB1FEE1FFF1FA217B307E407F507AF
:1019100020F0A21BB30BE40BF50B661F771F881F8B
:10192000991F1A9469F760957095809590959B0121
:10193000AC01BD01CF010895EE0FFF1F0590F4919A
:10194000E02D199410E0CAEED0E004C0FE010E9420
:0E1950009E0C2296CC3ED107C9F7F894FFCF2B
:10195E00496E76616C6964204672616D65009F1FE9
:10196E00923FD00F0940D00F4940E8878440E88766
:10197E00A440E887C440E887E440F44302410400F1
:10198E000000008E0355052403550335037E030026
:08199E00000000130510050014
:00000001FF
