:100000000C941E010C947F070C94B0070C94E1072C
:100010000C9412080C9443080C9474080C94A508D2
:100020000C94D6080C944B010C944A220C94CB21CE
:100030000C944B010C944B010C944B010C944B0110
:100040000C944B010C944B010C944B010C944B0100
:100050000C944B010C944B010C944B010C9407092C
:100060000C944B010C944D010C9449020C944B01DF
:100070000C944B010C944B010C944B010C944B01D0
:100080000C944B010C944B010C944B010C944B01C0
:100090000C948C010C9488020C944B010C94AB1AB8
:1000A0000C944B010C944B010C944B010C944B01A0
:1000B0000C944B010C944B010C944B010C944B0190
:1000C0000C944B010C944B010C944B010C94CB0100
:1000D0000C94C7020C944B010C940A020C94060376
:1000E0000C944B01084AD73B3BCE016E84BCBFFD4C
:1000F000C12F3D6C74319ABD56833DDA3D00C77FF8
:1001000011BED9E4BB4C3E916BAAAABE0000008090
:100110003F00002100240027002A002D003000337A
:100120000001010000040107010A0100002200256E
:100130000028002B002E00310034000201000005D1
:100140000108010B01000020002300260029002CDB
:10015000002F003200000100000301060109010523
:10016000050505070508080808020202020A0A0830
:100170000804040404010101010101010103030356
:100180000303030303040707070C0C0C0C0C0C0CF3
:100190000C0202020206060606060606060B0B0BFA
:1001A0000B0B0B0B0B010210202008081020401035
:1001B000204080020102010804020101020408102B
:1001C0002040808040201008040201800402018049
:1001D0004020100804020108040201010204081072
:1001E00020408001020408102040800000090A021B
:1001F000080B0C0D070603040100000000000000BE
:1002000000000000000000000000000000000000EE
:100210000000000000000011100F000000000000AE
:1002200000000000000000000000000000000000CE
:1002300000007604AC050D194F1D0E1911241FBEC8
:10024000CFEFD1E2DEBFCDBF00E00CBF14E0A0E0F5
:10025000B2E0E6EEFEE400E00BBF02C007900D92B4
:10026000A43BB107D9F71BBE1BE0A4EBB4E001C06F
:100270001D92A431B107E1F712E0CAE3D2E004C055
:100280002297FE010E946227C233D107C9F70E945C
:100290000F170C9466270C9400001F920F920FB654
:1002A0000F920BB60F9211242F933F934F938F937E
:1002B0009F93EF93FF938091C00082FD1DC04091FA
:1002C000C6002091F4043091F5042F5F3F4F2F7347
:1002D00030708091F6049091F7042817390771F077
:1002E000E091F404F091F504EC54FB4F408330931B
:1002F000F5042093F40402C08091C600FF91EF91B1
:100300009F918F914F913F912F910F900BBE0F9026
:100310000FBE0F901F9018951F920F920FB60F925D
:100320000BB60F9211242F933F934F938F939F936C
:10033000EF93FF938091C80082FD1DC04091CE00D5
:1003400020917C0530917D052F5F3F4F2F733070DA
:1003500080917E0590917F052817390771F0E09113
:100360007C05F0917D05E45CFA4F408330937D0578
:1003700020937C0502C08091CE00FF91EF919F9168
:100380008F914F913F912F910F900BBE0F900FBE09
:100390000F901F9018951F920F920FB60F920BB6E9
:1003A0000F9211242F933F934F938F939F93EF932B
:1003B000FF938091D00082FD1DC04091D600209116
:1003C0000406309105062F5F3F4F2F7330708091E8
:1003D0000606909107062817390771F0E091040688
:1003E000F0910506EC53FA4F4083309305062093B5
:1003F000040602C08091D600FF91EF919F918F91EA
:100400004F913F912F910F900BBE0F900FBE0F9009
:100410001F9018951F920F920FB60F920BB60F9266
:1004200011242F933F934F938F939F93EF93FF93B9
:100430008091300182FD1DC04091360120918C06D3
:1004400030918D062F5F3F4F2F73307080918E0655
:1004500090918F062817390771F0E0918C06F09182
:100460008D06E45BF94F408330938D0620938C0614
:1004700002C080913601FF91EF919F918F914F9132
:100480003F912F910F900BBE0F900FBE0F901F90BA
:1004900018951F920F920FB60F920BB60F92112460
:1004A0002F933F938F939F93EF93FF932091380562
:1004B0003091390580913A0590913B05281739070D
:1004C00031F48091C1008F7D8093C10014C0E09110
:1004D0003A05F0913B05E850FB4F208180913A05A9
:1004E00090913B0501968F73907090933B0580939C
:1004F0003A052093C600FF91EF919F918F913F9114
:100500002F910F900BBE0F900FBE0F901F9018955C
:100510001F920F920FB60F920BB60F9211242F93CA
:100520003F938F939F93EF93FF932091C00530915A
:10053000C1058091C2059091C3052817390731F490
:100540008091C9008F7D8093C90014C0E091C205DD
:10055000F091C305E058FA4F20818091C205909137
:10056000C30501968F7390709093C3058093C20565
:100570002093CE00FF91EF919F918F913F912F910A
:100580000F900BBE0F900FBE0F901F9018951F92EB
:100590000F920FB60F920BB60F9211242F933F9329
:1005A0008F939F93EF93FF932091480630914906D4
:1005B00080914A0690914B062817390731F48091B3
:1005C000D1008F7D8093D10014C0E0914A06F09154
:1005D0004B06E85FF94F208180914A0690914B06C7
:1005E00001968F73907090934B0680934A062093E8
:1005F000D600FF91EF919F918F913F912F910F9096
:100600000BBE0F900FBE0F901F9018951F920F9268
:100610000FB60F920BB60F9211242F933F938F9327
:100620009F93EF93FF932091D0063091D106809154
:10063000D2069091D3062817390731F48091310101
:100640008F7D8093310114C0E091D206F091D306E2
:10065000E057F94F20818091D2069091D306019600
:100660008F7390709093D3068093D20620933601B7
:10067000FF91EF919F918F913F912F910F900BBE22
:100680000F900FBE0F901F901895AF92BF92DF9200
:10069000EF92FF920F931F93CF93DF93EC017A01B8
:1006A0008B01DD24403081EE580780E0680780E050
:1006B000780711F0DD24D39491E0A92EB12CEC89B8
:1006C000FD89DD2069F0C50108A002C0880F991FCF
:1006D0000A94E2F7808360E079E08DE390E005C062
:1006E000108260E874E88EE190E0A80197010E9412
:1006F0003E27215030404040504056954795379511
:10070000279580E12030380720F0DD2011F0DD242E
:10071000D6CFE889F9893083EA89FB89208319A239
:10072000EE89FF89408121E030E0C9010C8C02C0D4
:10073000880F991F0A94E2F7482B4083EE89FF89BE
:100740004081C9010D8C02C0880F991F0A94E2F7FD
:10075000482B4083EE89FF894081C9010E8C02C07D
:10076000880F991F0A94E2F7482B4083EE89FF898E
:1007700080810F8C02C0220F331F0A94E2F720956C
:1007800028232083DF91CF911F910F91FF90EF904D
:10079000DF90BF90AF900895DC011C96ED91FC9125
:1007A0001D97E05CFF4F2191319180819181281B41
:1007B000390B2F733070C9010895DC011C96ED913F
:1007C000FC911D97E05CFF4F20813181E054F040A7
:1007D000DF01AE5BBF4F8D919C91119728173907B0
:1007E00019F42FEF3FEF07C08D919C91E80FF91F8F
:1007F0008081282F30E0C9010895DC011C96ED911D
:10080000FC911D97E05CFF4F20813181E054F04066
:10081000DF01AE5BBF4F8D919C911197281739076F
:1008200019F42FEF3FEF10C08D919C911197E80FB5
:10083000F91F20818D919C91119701968F73907073
:1008400011969C938E9330E0C9010895DC01919636
:100850008C919197882339F05496ED91FC9155979E
:10086000808186FFF9CF91961C920895CF93DF93F4
:10087000EC01EE85FF85E05CFF4F20813181E05483
:10088000F0402F5F3F4F2F733070DF01AE5BBF4FE3
:100890008D919C91119728173907D1F3E05CFF4F98
:1008A00080819181E054F040E80FF91F6083EE856C
:1008B000FF85E05CFF4F31832083EE89FF89208133
:1008C00081E090E00F8C02C0880F991F0A94E2F734
:1008D000282B208381E089A3EC89FD8980818064B5
:1008E000808381E090E0DF91CF9108951F93109273
:1008F000D7061092D60628EE33E040E050E0209371
:10090000D8063093D9064093DA065093DB0660E9A7
:1009100074E07093D5066093D40684EB94E09093D2
:10092000E1068093E00688EF94E09093E3068093DD
:10093000E20685EC90E09093E5068093E40684EC73
:1009400090E09093E7068093E60680EC90E0909329
:10095000E9068093E80681EC90E09093EB068093A3
:10096000EA0682EC90E09093ED068093EC0686EC2C
:1009700090E09093EF068093EE0614E01093F0065B
:10098000B3E0B093F106A7E0A093F206F5E0F09390
:10099000F306E1E0E093F4061092F9061092F806EF
:1009A0002093FA063093FB064093FC065093FD0615
:1009B0007093F7066093F6068CE395E09093030737
:1009C0008093020780E895E09093050780930407E1
:1009D0008DEC90E090930707809306078CEC90E0F5
:1009E000909309078093080788EC90E090930B0799
:1009F00080930A0789EC90E090930D0780930C0791
:100A00008AEC90E090930F0780930E078EEC90E0B5
:100A1000909311078093100710931207B093130758
:100A2000A0931407F0931507E093160710921B0785
:100A300010921A0720931C0730931D0740931E073E
:100A400050931F07709319076093180784EC95E083
:100A5000909325078093240788E096E090932707DA
:100A60008093260785ED90E09093290780932807CF
:100A700084ED90E090932B0780932A0780ED90E01F
:100A800090932D0780932C0781ED90E090932F0792
:100A900080932E0782ED90E090933107809330078A
:100AA00086ED90E0909333078093320710933407DC
:100AB000B0933507A0933607F0933707E0933807D4
:100AC00010923D0710923C0720933E0730933F075A
:100AD000409340075093410770933B0760933A0758
:100AE0008CE496E0909347078093460780E996E070
:100AF000909349078093480785E391E090934B07D3
:100B000080934A0784E391E090934D0780934C07CC
:100B100080E391E090934F0780934E0781E391E04B
:100B2000909351078093500782E391E0909353078D
:100B30008093520786E391E0909355078093540782
:100B400010935607B0935707A0935807F09359078F
:100B5000E0935A071F91089580EA94E090935D070F
:100B600080935C0710925E0710925F0710926007F7
:100B70001092610708958F929F92AF92BF92CF9289
:100B8000DF92EF92FF920F931F93CF93DF934C016D
:100B90006B017C01AA24BB24C0E0D0E0C601F701B0
:100BA00062814AE050E00E94DE068C01C6016EE2DE
:100BB0000E942706080F191FA00EB11E2196089447
:100BC000E11CF11CC330D10549F7C601F401658170
:100BD0004AE050E00E94DE069501280F391FC90146
:100BE000DF91CF911F910F91FF90EF90DF90CF9009
:100BF000BF90AF909F908F900895CF92DF92EF9229
:100C0000FF920F931F93CF93DF937C016B018A01B7
:100C1000C0E0D0E00FC0D6016D916D01D701ED911C
:100C2000FC910190F081E02DC7011995C80FD91FE3
:100C3000015010400115110571F7CE01DF91CF91E0
:100C40001F910F91FF90EF90DF90CF900895DC01FE
:100C5000ED91FC910190F081E02D19950895EF92AE
:100C6000FF920F931F938C01DC01ED91FC91019099
:100C7000F081E02D6DE019957C01D801ED91FC919A
:100C80000190F081E02DC8016AE019959C012E0DBC
:100C90003F1DC9011F910F91FF90EF900895CF93D1
:100CA000DF93EC016115710519F420E030E00FC00D
:100CB000DB010D900020E9F71197A61BB70BE88127
:100CC000F9810280F381E02DAD0119959C01C901E4
:100CD000DF91CF9108954F925F927F928F929F9272
:100CE000AF92BF92CF92DF92EF92FF920F931F933A
:100CF000DF93CF93CDB7DEB7A1970FB6F894DEBFE1
:100D00000FBECDBF2C01742ECB01223008F42AE097
:100D100019A231E2C32ED12CCC0EDD1E822E9924D5
:100D2000AA24BB24672D752FA50194010E943E279C
:100D300079018A01C801B701A50194010E941F270A
:100D4000472D461B0894C108D1084A3014F4405D71
:100D500001C0495CF6014083E114F104010511056D
:100D600021F07E2C5F2DC801DDCFC201B6010E94AB
:100D70004F06A1960FB6F894DEBF0FBECDBFCF9140
:100D8000DF911F910F91FF90EF90DF90CF90BF9078
:100D9000AF909F908F907F905F904F900895DC016F
:100DA0002115310541F4ED91FC910190F081E02D88
:100DB000642F199508950E946B060895EF92FF9293
:100DC0000F931F939A01E62EFF2400E010E0B80174
:100DD000A7010E94CF061F910F91FF90EF900895F9
:100DE000EF92FF920F931F937C010E944F068C019C
:100DF000C7010E942F06080F191FC8011F910F91EC
:100E0000FF90EF900895883008F078C0E82FF0E068
:100E1000EE0FFF1FEE59F84F718360838330D9F0D6
:100E2000843030F4813009F444C0823060F439C039
:100E3000853051F18530D8F0863009F446C08730CE
:100E400009F05CC04FC0809169008C7F842B809337
:100E50006900E89A089580916900440F551F440F76
:100E6000551F837F842B80936900E99A08958091B0
:100E7000690074E0440F551F7A95E1F78F7C842B4D
:100E800080936900EA9A08958091690066E0440FB2
:100E9000551F6A95E1F78F73842B80936900EB9A55
:100EA000089580916A008C7F842B80936A00EC9A6D
:100EB000089580916A00440F551F440F551F837F8A
:100EC000842B80936A00ED9A089580916A0024E053
:100ED000440F551F2A95E1F78F7C842B80936A007D
:100EE000EE9A089580916A0096E0440F551F9A95F6
:100EF000E1F78F73842B80936A00EF9A08951F9215
:100F00000F920FB60F920BB60F9211242F933F93AF
:100F10004F935F936F937F938F939F93AF93BF9301
:100F2000EF93FF938091660790916707892B29F0D3
:100F3000E0916607F09167071995FF91EF91BF91D6
:100F4000AF919F918F917F916F915F914F913F9161
:100F50002F910F900BBE0F900FBE0F901F90189502
:100F60001F920F920FB60F920BB60F9211242F9370
:100F70003F934F935F936F937F938F939F93AF9321
:100F8000BF93EF93FF938091680790916907892B36
:100F900029F0E0916807F09169071995FF91EF91A9
:100FA000BF91AF919F918F917F916F915F914F9181
:100FB0003F912F910F900BBE0F900FBE0F901F907F
:100FC00018951F920F920FB60F920BB60F92112425
:100FD0002F933F934F935F936F937F938F939F9341
:100FE000AF93BF93EF93FF9380916A0790916B0744
:100FF000892B29F0E0916A07F0916B071995FF9111
:10100000EF91BF91AF919F918F917F916F915F9180
:101010004F913F912F910F900BBE0F900FBE0F90ED
:101020001F9018951F920F920FB60F920BB60F924A
:1010300011242F933F934F935F936F937F938F93DD
:101040009F93AF93BF93EF93FF9380916C07909121
:101050006D07892B29F0E0916C07F0916D071995C8
:10106000FF91EF91BF91AF919F918F917F916F9180
:101070005F914F913F912F910F900BBE0F900FBE3C
:101080000F901F9018951F920F920FB60F920BB6EC
:101090000F9211242F933F934F935F936F937F93FE
:1010A0008F939F93AF93BF93EF93FF9380916207CA
:1010B00090916307892B29F0E0916207F091630713
:1010C0001995FF91EF91BF91AF919F918F917F9172
:1010D0006F915F914F913F912F910F900BBE0F90A9
:1010E0000FBE0F901F9018951F920F920FB60F9280
:1010F0000BB60F9211242F933F934F935F936F93EF
:101100007F938F939F93AF93BF93EF93FF938091C0
:10111000640790916507892B29F0E0916407F091AD
:1011200065071995FF91EF91BF91AF919F918F91B5
:101130007F916F915F914F913F912F910F900BBED7
:101140000F900FBE0F901F9018951F920F920FB621
:101150000F920BB60F9211242F933F934F935F93EF
:101160006F937F938F939F93AF93BF93EF93FF936F
:1011700080916E0790916F07892B29F0E0916E079F
:10118000F0916F071995FF91EF91BF91AF919F91EA
:101190008F917F916F915F914F913F912F910F9020
:1011A0000BBE0F900FBE0F901F9018951F920F92BD
:1011B0000FB60F920BB60F9211242F933F934F93BC
:1011C0005F936F937F938F939F93AF93BF93EF93AF
:1011D000FF938091700790917107892B29F0E0911E
:1011E0007007F09171071995FF91EF91BF91AF9141
:1011F0009F918F917F916F915F914F913F912F912F
:101200000F900BBE0F900FBE0F901F9018951F925E
:101210000F920FB60F9211242F933F938F939F93AA
:10122000AF93BF938091760790917707A09178074D
:10123000B091790730917A070196A11DB11D232F36
:101240002D5F2D3720F02D570196A11DB11D209344
:101250007A078093760790937707A0937807B093E7
:1012600079078091720790917307A0917407B091EC
:1012700075070196A11DB11D8093720790937307A6
:10128000A0937407B0937507BF91AF919F918F9111
:101290003F912F910F900FBE0F901F9018958FB711
:1012A000F894209176073091770740917807509114
:1012B00079078FBFB901CA0108959FB7F8942091AB
:1012C000720730917307409174075091750786B586
:1012D000A89B06C08F3F21F02F5F3F4F4F4F5F4FBE
:1012E0009FBF542F432F322F2227280F311D411D1E
:1012F000511D82E0220F331F441F551F8A95D1F7DD
:10130000B901CA010895789484B5826084BD84B51A
:10131000816084BD85B5826085BD85B5816085BDF0
:10132000EEE6F0E0808181608083E1E8F0E0108209
:10133000808182608083808181608083E0E8F0E04A
:10134000808181608083E1EBF0E080818460808334
:10135000E0EBF0E0808181608083E1E9F0E0808172
:1013600082608083808181608083E0E9F0E0808119
:1013700081608083E1EAF0E0808182608083808107
:1013800081608083E0EAF0E0808181608083E1E237
:10139000F1E0808182608083808181608083E0E2EF
:1013A000F1E0808181608083EAE7F0E08081846001
:1013B000808380818260808380818160808380815E
:1013C000806880831092C10008951F93CF93DF93AC
:1013D000182FEB0161E00E94C50A209709F4CAC0EA
:1013E000CF3FD10509F4C9C0E12FF0E0E551FE4F30
:1013F0008491893009F466C08A30B0F48430F1F108
:10140000853040F4823059F1833070F5813009F035
:10141000AEC020C0873009F443C0883008F048C00F
:10142000863009F0A4C034C08D3009F478C08E3005
:1014300038F48B3009F45AC08C3008F066C04CC0C8
:10144000803109F480C0813109F487C08F3009F000
:101450008EC06FC084B5806884BDC7BD92C084B59E
:10146000806284BDC8BD8DC08091800080688093FB
:101470008000D0938900C093880083C08091800051
:10148000806280938000D0938B00C0938A0079C0E3
:101490008091B00080688093B000C093B30071C0A9
:1014A0008091B00080628093B000C093B40069C0A6
:1014B00080919000806880939000D0939900C093B1
:1014C00098005FC080919000806280939000D093DC
:1014D0009B00C0939A0055C08091900088608093D3
:1014E0009000D0939D00C0939C004BC08091A000C1
:1014F00080688093A0008091A0008F7B8093A000E3
:10150000D093A900C093A8003CC08091A000806245
:101510008093A000D093AB00C093AA0032C080910A
:10152000A00088608093A000D093AD00C093AC0071
:1015300028C080912001806880932001D0932901E8
:10154000C09328011EC080912001806280932001F9
:10155000D0932B01C0932A0114C080912001886090
:1015600080932001D0932D01C0932C010AC0C03874
:10157000D1051CF4812F60E002C0812F61E00E9440
:10158000780BDF91CF911F910895CF93DF93482F70
:1015900050E0CA018B559E4FFC013491415A5E4F79
:1015A000FA018491882369F190E0880F991FFC016A
:1015B000EF5EFE4FA591B491FC01E55DFE4FC59134
:1015C000D491662351F42FB7F8948C91932F909572
:1015D00089238C93888189230BC0623061F42FB7F3
:1015E000F8948C91932F909589238C938881832BE9
:1015F00088832FBF06C09FB7F8948C91832B8C9360
:101600009FBFDF91CF910895893009F449C08A3096
:10161000A0F4843051F1853040F4823079F1833088
:1016200000F5813009F063C026C0873079F1883039
:1016300098F5863009F05BC025C08D3009F442C0B2
:101640008E3028F48B30B1F18C30C0F52DC0803154
:1016500009F442C0813109F445C08F3009F047C018
:1016600037C0809180008F7703C0809180008F7D8C
:1016700080938000089584B58F7702C084B58F7DF4
:1016800084BD08958091B0008F7703C08091B00031
:101690008F7D8093B0000895809190008F7707C070
:1016A000809190008F7D03C080919000877F809310
:1016B000900008958091A0008F7707C08091A000CE
:1016C0008F7D03C08091A000877F8093A000089544
:1016D000809120018F7703C0809120018F7D8093BE
:1016E0002001089580912001877F80932001089533
:1016F000FF920F931F93F62E482F50E0CA01855199
:101700009E4FFC012491CA018B559E4FFC01149100
:10171000415A5E4FFA0104910023C9F0222319F0C7
:10172000822F0E94040BE02FF0E0EE0FFF1FE55D1B
:10173000FE4FA591B4919FB7F894FF2021F48C91AE
:101740001095812302C08C91812B8C939FBF1F9198
:101750000F91FF9008950F931F93482F50E0CA01F7
:1017600085519E4FFC012491CA018B559E4FFC016F
:101770000491415A5E4FFA011491112319F420E0AB
:1017800030E015C0222319F0822F0E94040B812F14
:1017900090E0880F991F8B5B9E4FFC01A591B4913F
:1017A0008C9120E030E0802311F021E030E0C9018D
:1017B0001F910F9108952F923F924F925F926F92D7
:1017C0007F928F929F92AF92BF92CF92DF92EF92D1
:1017D000FF920F931F93DF93CF93CDB7DEB7689738
:1017E0000FB6F894DEBF0FBECDBF1B012C01298BB5
:1017F0003A8B4B8B5C8B188F0F8BFE8AED8A9B018B
:10180000AC0197FF07C022273327A901261B370BFE
:10181000480B590B89899A89AB89BC89B7FF07C0E6
:10182000B095A095909581959F4FAF4FBF4F7A018E
:1018300000271127ED86FE860F87188B0FEFA02E4D
:101840000FEFB02EC12CD12CA222B322C422D5225C
:101850008D012227332709871A872B873C87FFEFC3
:10186000EF2EFFEFFF2E012D112DE822F9220A2382
:101870001B23C801B7012D853E854F8558890E94DD
:101880001F276D837E838F83988769857A858B85F3
:101890009C85A60195010E941F2769837A838B830B
:1018A0009C83C801B7010E941F27E980FA800B8141
:1018B0001C81A70133272227260F371F481F591FD6
:1018C000662477244301261737074807590728F469
:1018D00071E0672E712C812C912C8D819E81AF81BE
:1018E000B8856C01BB24AA24A20EB31EC41ED51E4B
:1018F000A216B306C406D50628F40894611C711C10
:10190000811C911C29813A814B815C817A010027DD
:1019100011272D813E814F815885CA01AA27BB27F7
:10192000E80EF91E0A1F1B1F69857A858B859C8529
:101930002D853E854F8558890E941F27E60EF71E8C
:10194000081F191FE60CF71C081D191D211431046E
:101950004104510499F189899A89AB89BC8900971E
:10196000A105B10559F190E01214130414041504F3
:101970000CF491E080E029893A894B895C89121640
:101980001306140615060CF481E09817B9F0E094DC
:10199000F09400951095A094B094C094D0940894BD
:1019A000A11CB11CC11CD11CA114B104C104D104DF
:1019B00029F40894E11CF11C011D111DAF89B88D9B
:1019C000ED92FD920D931C931397ED89FE89A082F1
:1019D000B182C282D38268960FB6F894DEBF0FBE82
:1019E000CDBFCF91DF911F910F91FF90EF90DF90CE
:1019F000CF90BF90AF909F908F907F906F905F90AF
:101A00004F903F902F900895EF92FF920F931F9366
:101A1000DF93CF93CDB7DEB728970FB6F894DEBF2C
:101A20000FBECDBF8E010F5F1F4FF5E0EF2EF12CE3
:101A3000EC0EFD1E0E94DB0B2D813E814F815885EF
:101A4000EEE05695479537952795EA95D1F7898128
:101A50009A81AB81BC8172E1880F991FAA1FBB1FBD
:101A60007A95D1F7282B392B4A2B5B2BB901CA0168
:101A700028960FB6F894DEBF0FBECDBFCF91DF9191
:101A80001F910F91FF90EF9008952F923F924F92E8
:101A90005F926F927F928F929F92AF92BF92CF92FE
:101AA000DF92EF92FF920F931F93DF93CF93CDB707
:101AB000DEB72A970FB6F894DEBF0FBECDBFFB018D
:101AC0005E834D83190118870F83882309F4A0C012
:101AD000BF01882777FD8095982FD80116962D9104
:101AE0003C911797442737FD4095542F0E941F279C
:101AF0003B014C01D1018D919D910D90BC91A02D88
:101B000089839A83AB83BC830296880F991F820DC9
:101B1000931D9A8789872801E980FA800B811C81AF
:101B200081E0A82EB12CC12CD12C21C0F2016681FC
:101B30007781882777FD8095982FA985BA852D9183
:101B40003D91BA87A987442737FD4095542F0E94BD
:101B50001F27660E771E881E991E0894A11CB11CB3
:101B6000C11CD11C0894E11CF11C011D111DE2E0F7
:101B7000F0E04E0E5F1EF3E6EF16F10401051105CD
:101B8000ACF22101B3E0CB2ED12CCA0CDB1CCC0C67
:101B9000DD1C8F819885C80ED91EEE24FF24870195
:101BA0001AC0D6016D917D916D01882777FD8095D2
:101BB000982FF20122813381442737FD4095542F1D
:101BC0000E941F27660E771E881E991E0894E11C2E
:101BD000F11C011D111D82E090E0480E591E898103
:101BE0009A81AB81BC81E816F9060A071B07CCF283
:101BF000AF81B8856D917D918D919C91A4019301E8
:101C00000E94040DED81FE81608371838283938342
:101C10002A960FB6F894DEBF0FBECDBFCF91DF91ED
:101C20001F910F91FF90EF90DF90CF90BF90AF90FA
:101C30009F908F907F906F905F904F903F902F90EC
:101C40000895089584E090E00E94B817E2E7F8E074
:101C50008FE8DF011D928A95E9F785EF98E0909370
:101C600077088093760887EF98E09093B108809387
:101C7000B0088DEE98E09093850880938408F093E7
:101C8000D508E093D408F0937508E093740881E0D8
:101C900090E09093F6088093F50880E092E09093AE
:101CA0007B0880937A0889EF98E09093F8088093F6
:101CB000F7088AE097EDA3E2BCE38093ED089093E8
:101CC000EE08A093EF08B093F0088BE4E1EBFAE0A4
:101CD000DF011D928A95E9F780EB91E0E1E0F9E000
:101CE000DF019C011D9221503040E1F780E090E03F
:101CF000A0E0B0E08093190990931A09A0931B0902
:101D0000B0931C091092E7091092E8091092E909B2
:101D10001092EA098091C0039091C103EBEEF9E0C3
:101D2000819391933AE0E13BF307D1F710921D09BB
:101D300010921E0910921F09109220098091F20240
:101D40009091F302E1E2F9E081939193A9E0E73EFB
:101D5000FA07D1F780914C0261E00E94C50A809198
:101D6000500261E00E94C50A8091540261E00E9425
:101D7000C50A8091580261E00E94C50A8091A402C0
:101D80009091A502A091A602B091A70280930509A7
:101D900090930609A0930709B093080920E030E06A
:101DA00040E050E02093090930930A0940930B0961
:101DB00050930C098091440290914502A0914602F3
:101DC000B091470280930D0990930E09A0930F09DB
:101DD000B09310098091480290914902A0914A0263
:101DE000B0914B028093110990931209A0931309AB
:101DF000B0931409209315093093160940931709DD
:101E00005093180920930109309302094093030964
:101E10005093040908958F929F92AF92BF92CF92F0
:101E2000DF92EF92FF920F931F936091B10A70912E
:101E3000B20A8091B30A9091B40A20E030E040E009
:101E400050E00E94AE26181654F483EF9AE069E140
:101E500079E047EE52E021E030E00E94312481EE4B
:101E60009AE063EE7AE045EE5AE027EE3AE009EEBA
:101E70001AE0FBEEEF2EFAE0FF2EE1E0CE2EE9E0D5
:101E8000DE2E0E94ED1F4091F20A2091E10A30916E
:101E9000E20A442359F18091E7099091E809A09161
:101EA000E909B091EA090197A109B1098093E7090D
:101EB0009093E809A093E909B093EA09B7FF0CC031
:101EC00082E690E0A0E0B0E08093E7099093E80913
:101ED000A093E909B093EA09E091E709F091E809D4
:101EE000EE0FFF1FE551F64F318320832091E70A63
:101EF0003091E80A442359F180911D0990911E09FF
:101F0000A0911F09B09120090197A109B1098093FF
:101F10001D0990931E09A0931F09B0932009B7FFD4
:101F20000CC082E690E0A0E0B0E080931D099093A1
:101F30001E09A0931F09B0932009E0911D09F0919B
:101F40001E09EE0FFF1FEF5DF64F31832083809156
:101F5000F10A882309F476C08091B50A9091B60AF7
:101F6000A091B70AB091B80A809305099093060929
:101F7000A0930709B09308098DEE9AE06FEE7AE01E
:101F800049E059E028EE32E002E010E0BAEEEB2E34
:101F9000B2E0FB2EA2E0CA2ED12CFCEEAF2EF2E076
:101FA000BF2EE2E08E2E912C0E9497208091B90ADC
:101FB0009091BA0AA091BB0AB091BC0A80930D0916
:101FC00090930E09A0930F09B09310098091BD0A58
:101FD0009091BE0AA091BF0AB091C00A80931109E6
:101FE00090931209A0931309B093140900D00F9293
:101FF00086EE92E0EDB7FEB79283818381E090E0B8
:102000009483838381EC9AE065EC7AE049EC5AE0B2
:102010002DEC3AE001ED1AE0B5EDEB2EBAE0FB2E27
:10202000A9EDCA2EAAE0DA2EFDEDAF2EFAE0BF2E02
:10203000E5E18E2EE9E09E2E0E940F190F900F9081
:102040000F900F900091F7081091F8086091E9083F
:102050007091EA088091EB089091EC086F5F7F4FD8
:102060008F4F9F4F6093E9087093EA088093EB08C5
:102070009093EC080E94D7252091ED083091EE084E
:102080004091EF085091F0080E94B926F801608352
:102090007183828393838091F1089091F208A091DB
:1020A000F308B091F4080196A11DB11D8093F108C9
:1020B0009093F208A093F308B093F4081F910F9146
:1020C000FF90EF90DF90CF90BF90AF909F908F9058
:1020D0000895AF92BF92CF92DF92EF92FF920F934B
:1020E0001F93CF93DF937B018C0159016A010E94FA
:1020F000AD17882331F4C601B5010E94AD178823BE
:1021000049F06091080B7091090B80910A0B909136
:102110000B0B72C0C801B7010E9482178823C9F156
:10212000C601B5010E948217882399F1C801B70141
:1021300020E030E040E050E00E94AE2618161CF08F
:102140000FEF1FEF02C001E010E0C601B50120E073
:1021500030E040E050E00E94AE2618161CF0CFEFB1
:10216000DFEF02C0C1E0D0E0B801882777FD80959D
:10217000982F0E94D9257B018C01BE01882777FD0D
:102180008095982F0E94D9259B01AC01C801B70109
:1021900031C0C601B50120E030E040E050E00E94CF
:1021A0003A25882319F5C801B70120E030E040E066
:1021B00050E00E94AE2618162CF46BED7FE089ECFF
:1021C0009FE31AC0C801B70120E030E040E050E0D2
:1021D0000E943A2587FD05C060E070E080E090E055
:1021E0000BC06BED7FE089EC9FEB06C0C801B70127
:1021F000A60195010E94E724DF91CF911F910F91D5
:10220000FF90EF90DF90CF90BF90AF9008952F9206
:102210003F924F925F926F927F928F929F92AF9276
:10222000BF92CF92DF92EF92FF920F931F93DF93B3
:10223000CF93CDB7DEB7EC970FB6F894DEBF0FBEE5
:10224000CDBFE091F708F091F80880809180A280DE
:10225000B380C501B4012AE939E949E95FE30E9485
:10226000AE2618161CF020E030E00FC010E0C501CB
:10227000B40126E636E646EA5FE30E943A2587FF88
:1022800011E081E01827212F30E0B901882777FD80
:102290008095982F0E94D9256093B10A7093B20A55
:1022A0008093B30A9093B40A20E030E040E050E01D
:1022B0000E94AE261816FCF41092F30A60915C029C
:1022C00070915D0280915E0290915F0220E030E0AB
:1022D00040E050E00E943A25882319F081E0809385
:1022E000F30A83EF9AE069E179E047EE52E021E0FA
:1022F00030E00E94562481EE9AE063EE7AE045EEEB
:102300005AE027EE3AE009EE1AE0BBEEEB2EBAE017
:10231000FB2EA1E0CA2EA9E0DA2E0E94951E10E045
:10232000C501B40120914002309141024091420226
:10233000509143020E94AE2618160CF411E010933F
:10234000F10A80E0112309F481E08093F20A6091A0
:10235000E10A7091E20A48EF5AE027EE39E00CEB0F
:1023600013E00E94450D6091E70A7091E80A8091A0
:10237000F20A44EF5AE02DE139E00EEE12E00E943D
:10238000450D8091D4029091D502A091D602B091D2
:10239000D70289AF9AAFABAFBCAF8091D802909112
:1023A000D902A091DA02B091DB028DAB9EABAFAB4C
:1023B000B8AF8091DC029091DD02A091DE02B09175
:1023C000DF0289AB9AABABABBCAB8091E0029091E2
:1023D000E102A091E202B091E3028DA79EA7AFA710
:1023E000B8AB8091F10A882309F400C5A0902402BB
:1023F000B0902502C0902602D09027026091E10A99
:102400007091E20A882777FD8095982F0E94D92540
:102410007B018C016091F80A7091F90A8091FA0AA7
:102420009091FB0A0E94D92520E030E040E858EB6B
:102430000E94B9269B01AC01C801B7010E94742417
:10244000A60195010E94B92669A37AA38BA39CA338
:102450006091E70A7091E80A882777FD8095982FA8
:102460000E94D9257B018C016091F40A7091F50AD4
:102470008091F60A9091F70A0E94D92520E030E079
:1024800040E858EB0E94B9269B01AC01C801B70196
:102490000E947424A60195010E94B9266D8F7E8F3B
:1024A0008F8F98A369A17AA18BA19CA12D8D3E8DC0
:1024B0004F8D58A10E9474242091A0023091A10256
:1024C0004091A2025091A3020E94B926698F7A8F8F
:1024D0008B8F9C8F6091EB0A7091EC0A882777FDB7
:1024E0008095982F0E94D925209178023091790209
:1024F00040917A0250917B020E94732420917C02C9
:1025000030917D0240917E0250917F020E94B92657
:102510007B018C016091E90A7091EA0A882777FDB6
:102520008095982F0E94D9252091800230918102B8
:1025300040918202509183020E9473242091840270
:102540003091850240918602509187020E94B926FF
:102550009B01AC01C801B7010E9469105B016C01CD
:102560006091E50A7091E60A882777FD8095982F9B
:102570000E94D925209188023091890240918A02D7
:1025800050918B020E94732420918C0230918D0215
:1025900040918E0250918F020E94B9267B018C01DE
:1025A0006091E30A7091E40A882777FD8095982F5F
:1025B0000E94D9252091900230919102409192027F
:1025C000509193020E9473242091940230919502BD
:1025D00040919602509197020E94B9269B01AC014E
:1025E000C801B7010E9469109B01AC01C601B50189
:1025F0000E947424209198023091990240919A028D
:1026000050919B020E94B92620919C0230919D021C
:1026100040919E0250919F020E94B9267B018C013D
:10262000698D7A8D8B8D9C8D20913C0230913D027D
:1026300040913E0250913F020E94B9262091050927
:102640003091060940910709509108090E947424AD
:102650002091A8023091A9024091AA025091AB02A8
:102660000E94B9269B01AC01C801B7010E947424E5
:102670006093B50A7093B60A8093B70A9093B80A2C
:102680002091AC023091AD024091AE025091AF0268
:102690000E9473246D8B7E8B8F8B988F8DEE9AE0CA
:1026A0006FEE7AE049E059E028EE32E002E010E017
:1026B000FAEEEF2EF2E0FF2EE2E0CE2ED12CBCEEB1
:1026C000AB2EB2E0BB2EA2E08A2E912C0E945620A7
:1026D000E0902002F090210200912202109123024A
:1026E0006091ED0A7091EE0A882777FD8095982F0A
:1026F0000E94D9259B01AC01C801B7010E94B926EF
:102700005B016C0117FB109517F910956091EF0AAA
:102710007091F00A882777FD8095982F0E94D9251F
:102720009B01AC01C801B7010E94B9267B018C0155
:10273000609138027091390280913A0290913B0287
:1027400020E030E040E05FEB0E94B9263B014C0105
:10275000C601B501A80197010E9474249B01AC0138
:10276000C401B3010E94B926698B7A8B8B8B9C8B39
:10277000C601B5012091B0023091B1024091B20280
:102780005091B3020E94B9265B016C016093B90AB3
:102790007093BA0A8093BB0A9093BC0AC801B70130
:1027A0002091B4023091B5024091B6025091B70227
:1027B0000E94B9267B018C016093BD0A7093BE0A0A
:1027C0008093BF0A9093C00AC601B50120910D09FC
:1027D00030910E0940910F09509110090E94732405
:1027E0005B016C01C801B7012091110930911209F8
:1027F00040911309509114090E9473249B01AC016C
:10280000C601B5010E947424A40193010E94B92657
:102810006D837E838F839887E0902802F090290251
:1028200000912A0210912B02A0902C02B0902D0250
:10283000C0902E02D0902F022090300230903102B2
:1028400040903202509033028091340290913502D0
:10285000A0913602B091370289A79AA7ABA7BCA76F
:102860006D897E898F89988D9F7720E030E040ECDC
:102870005EE30E943A2587FD0BC00F2EF0E06F2E1D
:10288000F0E07F2EF0E08F2EF0E09F2EF02D0AC0BA
:102890000F2EF0E06F2EF0E07F2EF0E88F2EFFE39A
:1028A0009F2EF02D69A97AA98BA99CA92DA53EA5DB
:1028B0004FA558A90E9473246DA37EA38FA398A748
:1028C000C801B70129893A894B895C890E94B926D8
:1028D0007B018C01C601B5012D813E814F81588558
:1028E0000E94B9269B01AC01C801B7010E94742463
:1028F0007B018C01C201B1012D893E894F89588D20
:102900000E94B9269B01AC01C801B7010E94742442
:102910007B018C0169A57AA58BA59CA5298D3A8D93
:102920004B8D5C8D0E94B9269B01AC01C801B7019B
:102930000E947424A40193010E94B92669837A83BA
:102940008B839C832091B8023091B9024091BA02E6
:102950005091BB020E94B9266B017C012091D002EC
:102960003091D1024091D2025091D3020E943E2573
:102970002DA13EA14FA158A50E94B9266D877E8743
:102980008F87988B2091BC023091BD024091BE028E
:102990005091BF020E94AE2688234CF080917002B5
:1029A00090917102A0917202B091730208C080915F
:1029B0006C0290916D02A0916E02B0916F028987B6
:1029C0009A87AB87BC8769857A858B859C8520E053
:1029D00030E040E853E40E943A2587FD02C01FEF33
:1029E00015C069857A858B859C8520E030E040E0C4
:1029F00050E00E94AE2687FF02C010E007C0698544
:102A00007A858B859C850E94AB25162F69AD7AADA2
:102A10008BAD9CAD2DA93EA94FA958AD0E94732442
:102A20001B012C0180914C02612F0E94780BC70181
:102A3000B6012091D0023091D1024091D202509142
:102A4000D3020E943E25A20191010E94B9267B017A
:102A50008C012091C0023091C1024091C20250917C
:102A6000C3020E94AE2688234CF0609064027090EE
:102A70006502809066029090670208C060906002D4
:102A8000709061028090620290906302C401B30171
:102A900020E030E040E853E40E943A2587FD02C080
:102AA0006FEF10C0C401B30120E030E040E050E01F
:102AB0000E94AE2687FF02C060E004C0C401B301DB
:102AC0000E94AB25809150020E94780B570168014B
:102AD000E894D7F8C601B501A20191010E94AE2683
:102AE00018161CF48201710118C0C201B1012091B5
:102AF00068023091690240916A0250916B020E9413
:102B0000B9267B018C01C601B501A80197010E947D
:102B10003A2587FD02C086017501C201B101A401F9
:102B200093010E94B926A80197010E9473249B017A
:102B3000AC01E090D802F090D9020091DA02109135
:102B4000DB025F77C801B7010E9474245B016C014E
:102B5000C801B701A40193010E94B9262091C402C3
:102B60003091C5024091C6025091C7020E94B92619
:102B7000A60195010E9474247B018C0120E030E0C5
:102B800040E853E40E943A2587FD02C06FEF10C071
:102B9000C801B70120E030E040E050E00E94AE26DE
:102BA00087FF02C060E004C0C801B7010E94AB25E6
:102BB0008091540270E00E94E509ED84FE840F8547
:102BC0001889E89417F9C801B7012DA13EA14FA1BA
:102BD00058A50E94AE2618162CF4EDA0FEA00FA159
:102BE00018A51AC06DA17EA18FA198A5209174028D
:102BF0003091750240917602509177020E94B92679
:102C00005B016C01C801B701A60195010E943A253C
:102C1000882314F4860175016DA17EA18FA198A56A
:102C200029853A854B855C850E94B926A8019701C4
:102C30000E9473249B01AC01E090E002F090E1025D
:102C40000091E2021091E3025F77C801B7010E9490
:102C500074245B016C01C801B70129853A854B8555
:102C60005C850E94B9262091C8023091C90240912A
:102C7000CA025091CB020E94B926A60195010E947A
:102C800074247B018C0120E030E040E853E40E9492
:102C90003A2587FD02C06FEF10C0C801B70120E0E0
:102CA00030E040E050E00E94AE2687FF02C060E0C6
:102CB00004C0C801B7010E94AB258091580270E0A2
:102CC0000E94E50989899A89AB89BC898093C10AE8
:102CD0009093C20AA093C30AB093C40A8D819E81C7
:102CE000AF81B8858093C50A9093C60AA093C70A9E
:102CF000B093C80A8D899E89AF89B88D8093C90A1F
:102D00009093CA0AA093CB0AB093CC0A898D9A8D6E
:102D1000AB8DBC8D8093CD0A9093CE0AA093CF0A41
:102D2000B093D00A89819A81AB81BC818093D10A0A
:102D30009093D20AA093D30AB093D40A89A19AA1FE
:102D4000ABA1BCA18093D50A9093D60AA093D70AD1
:102D5000B093D80A8D8D9E8DAF8DB8A18093D90A7E
:102D60009093DA0AA093DB0AB093DC0A8091CC023C
:102D70009091CD02A091CE02B091CF028093DD0A56
:102D80009093DE0AA093DF0AB093E00A00D00F927E
:102D900086EE92E0ADB7BEB712969C938E931197D4
:102DA00081E090E014969C938E93139781EC9AE0C7
:102DB00065EC7AE049EC5AE02DEC3AE001ED1AE0DE
:102DC000F5EDEF2EFAE0FF2EE9EDCE2EEAE0DE2E55
:102DD000BDEDAB2EBAE0BB2EA5E18A2EA9E09A2E5E
:102DE0000E9438190F900F900F900F90EC960FB62D
:102DF000F894DEBF0FBECDBFCF91DF911F910F9131
:102E0000FF90EF90DF90CF90BF90AF909F908F900A
:102E10007F906F905F904F903F902F900895AF926A
:102E2000BF92CF92DF92EF92FF920F931F93CF93B7
:102E3000DF930E9483090E94220E8DE061E00E94D0
:102E4000C50A8DE060E00E94780BC091A204D09189
:102E5000A304AA24BB24650124C00E945D097B0150
:102E60008C01DC01CB018A199B09AC09BD09805199
:102E70009742A040B040A8F00E9407110E940B0F9B
:102E80000E945D096E197F09800B910B6151774299
:102E90008040904020F08DE061E00E94780B570167
:102EA000680188819981892BC1F20E94210E80E0FE
:102EB00090E0DF91CF911F910F91FF90EF90DF9005
:102EC000CF90BF90AF90089560E070E080E89FE7FA
:102ED000089560E070E080E89FE7089560E070E0AA
:102EE00080E89FEF089560E070E080E89FEF08952C
:102EF00060E070E080EC9FEF089560E070E080ECAF
:102F00009FEF0895DF92EF92FF920F931F937B0143
:102F10008C012091040B3091050B4091060B5091D0
:102F2000070B0E943A25882379F0DD24C801B701F8
:102F300020910C0B30910D0B40910E0B50910F0B0B
:102F40000E943A25882311F4DD24D3948D2D1F91FE
:102F50000F91FF90EF90DF9008951F939B01AC01BC
:102F600010E00E943A25811111E0812F1F910895F0
:102F70000E9478176093080B7093090B80930A0BDB
:102F800090930B0B0E947D176093FC0A7093FD0ACF
:102F90008093FE0A9093FF0A0E9464176093040BCB
:102FA0007093050B8093060B9093070B0E94691793
:102FB0006093000B7093010B8093020B9093030BB3
:102FC0000E946E1760930C0B70930D0B80930E0B89
:102FD00090930F0B0E9473176093100B7093110B5B
:102FE0008093120B9093130B0895EF92FF920F931F
:102FF0001F93D701ED91FC911197E00FF11F108203
:10300000ED91FC91119731961196FC93EE93E00FA0
:10301000F11F1082ED91FC91119731961196FC935E
:10302000EE93E00FF11F675F6083ED91FC911197C4
:1030300031961196FC93EE93E00FF11F4083ED91D2
:10304000FC91119731961196FC93EE93E00FF11FCE
:1030500020838D919C91119701968D939C9381E093
:103060001F910F91FF90EF900895EF92FF920F93B1
:103070001F93CF93DF938B01DA01CD91DC911197F0
:103080008FEF9FEF60E070E021E2E22E20E1F22E70
:103090001AC0F801E60FF71FF081E0E08E279F27A6
:1030A00020E030E0AC01440F551F97FF04C0CA0177
:1030B0008E259F2501C0CA012F5F3F4F2830310563
:1030C00089F76F5F7F4F6C177D0718F3C00FD11F13
:1030D0008883ED91FC91119731961196FC93EE93B4
:1030E000E00FF11F9083ED91FC91119731961196AD
:1030F000FC93EE93E00FF11F1082ED91FC9111977C
:1031000031961196FC93EE93E00FF11F10828D9192
:103110009C91119701968D939C9381E0DF91CF91C3
:103120001F910F91FF90EF9008954F925F926F92D1
:103130007F928F929F92AF92BF92CF92DF92EF9247
:10314000FF920F931F93DF93CF930F920F92CDB700
:10315000DEB72C01E62FB42EA52E390147011A82C5
:103160001982B901660F771F660F771F4E2F20E077
:1031700087017E010894E11CF11C0E94F5172B2D9C
:103180003A2DC901DC0160E070E025C02C91119658
:103190003C91119712964C91129713965C9113974C
:1031A00089819A81F401E80FF91F20830196F401C7
:1031B000E80FF91F30830196F401E80FF91F4083EF
:1031C0000196F401E80FF91F508301969A838983D1
:1031D0006F5F7F4F149666157705C0F2C201B40188
:1031E000AE014F5F5F4F0E94351889819A81F601C9
:1031F000918380830F900F90CF91DF911F910F915A
:10320000FF90EF90DF90CF90BF90AF909F908F9006
:103210007F906F905F904F900895089508958F92DA
:103220009F92DF93CF93CDB7DEB7F40160817181B8
:103230008281938120E030E040E85FE30E943A25FC
:10324000882389F088E197E040E052EC61E070E08B
:103250000E94450380E090E0A0E8BFE3F401808392
:103260009183A283B383CF91DF919F908F90089534
:103270002F923F924F925F926F927F928F929F9286
:10328000AF92BF92CF92DF92EF92FF920F931F9374
:10329000DF93CF93CDB7DEB7C452D4400FB6F894C6
:1032A000DEBF0FBECDBF3C012B011A01CD5DDB4F50
:1032B00039832883C352D440F401608171818281B3
:1032C000938120E030E040E85FE30E943A258823C4
:1032D00009F088C01A821982C65CDB4FE881F98147
:1032E000CA53D4406081F30180819181A281B3816E
:1032F0008B839C83AD83BE83F20180819181A28107
:10330000B3818F839887A987BA87F10180819181E2
:10331000A281B3818B879C87AD87BE87CD5DDB4F54
:10332000E881F981C352D44080819181A281B38127
:103330008F87988BA98BBA8BF80180819181A281AC
:10334000B3818B8B9C8BAD8BBE8BF7018081918180
:10335000A281B3818F8B988FA98FBA8FF60180815C
:103360009181A281B3818B8F9C8FAD8FBE8FF50130
:1033700080819181A281B3818F8F98A3A9A3BAA3E1
:1033800003E2A02EB12CAC0EBD1E8BE797E0AE0180
:103390004D5F5F4F28E030E000E014E075016E0102
:1033A0000894C11CD11C0E94951889819A81899723
:1033B00099F400E010E00AC0F701E00FF11F88E186
:1033C00097E060810E9436040F5F1F4F89819A81C8
:1033D0000817190788F306C088E197E062E172E0F8
:1033E0000E94F006CC5DDB4F0FB6F894DEBF0FBE37
:1033F000CDBFCF91DF911F910F91FF90EF90DF90A4
:10340000CF90BF90AF909F908F907F906F905F9084
:103410004F903F902F900895382F413210F040E0A8
:1034200042C0809111088823E1F791E09093110840
:1034300020930F088FEF809312081092ED074150F0
:103440004093EE074F5F9093EC078091EC07330FAA
:10345000832B8093EC0780911008813041F4109207
:1034600010088091EC078093BB0085EC01C085EECD
:103470008093BC00809111088130E1F38091ED07C9
:10348000841710F44091ED0720E030E00AC0FB0102
:10349000E20FF31FD901A151B84F8C9180832F5FA8
:1034A0003F4F2417A0F3842F08950F931F93582F95
:1034B000122F413210F081E045C08091110888231D
:1034C000E1F782E08093110800930F088FEF80935B
:1034D00012081092ED074093EE07AFEEB7E0FB0144
:1034E00002C081918D938E2F861B8417D0F310928A
:1034F000EC078091EC07550F852B8093EC078091AA
:103500001008813041F4109210088091EC078093EC
:10351000BB0085EC01C085EE8093BC001123A9F0AF
:1035200080911108823089F4FBCF8091120880329B
:1035300011F482E007C080911208803311F084E01A
:1035400001C083E01F910F910895809112088F3F71
:1035500061F780E0F7CF1F920F920FB60F920BB674
:103560000F9211242F933F934F935F936F937F9309
:103570008F939F93AF93BF93EF93FF938091B90085
:1035800090E0887F90708036910509F4F2C0813612
:103590009105CCF58832910509F47BC089329105FB
:1035A000B4F48031910509F46FC0813191053CF488
:1035B000009709F447C1089709F04FC165C08831E9
:1035C000910509F466C0809709F047C182C0803434
:1035D000910509F4A4C08134910544F48033910528
:1035E00009F482C0C89709F038C189C080359105B7
:1035F00009F489C08835910509F496C0883491058D
:1036000009F02BC1AEC08839910509F413C189397D
:103610009105ECF48837910509F4ABC08937910521
:103620004CF48836910509F4A4C08037910509F05F
:1036300014C19FC08838910509F4FCC080399105F8
:1036400009F49DC08038910509F007C198C0803BFE
:10365000910509F4C6C0813B91054CF4803A91056F
:1036600009F49FC0883A910509F0F7C0BAC0803CC0
:10367000910509F4E3C0883C910509F4DFC0883B5B
:10368000910509F0EAC0C2C08091EC078093BB00AD
:10369000CFC09091ED078091EE07981768F4909154
:1036A000ED07E92FF0E0E151F84F80818093BB00F6
:1036B0009F5F9093ED07BCC080910F08882309F4A9
:1036C0004BC085ED8093BC008091BC0084FDFCCF95
:1036D000C2C080E28093120885ED8093BC00809187
:1036E000BC0084FDFCCFB7C080E38093120885ED59
:1036F0008093BC008091BC0084FDFCCFACC088E30B
:10370000809312089BC08091ED079091BB00E82F39
:10371000F0E0E151F84F90838F5F8093ED07909137
:10372000ED078091EE0782C08091ED079091BB007C
:10373000E82FF0E0E151F84F90838F5F8093ED0721
:1037400080910F08882341F085ED8093BC00809123
:10375000BC0084FDFCCF7FC081E08093100884EA28
:103760006EC085ED8093BC008091BC0084FDFCCFD1
:1037700072C083E0809311081092130859C08091A1
:103780001308803208F056C0809113089091BB0056
:10379000E82FF0E0EC5EF74F90838F5F8093130883
:1037A00047C080911308803230F4E0911308F0E0B4
:1037B000EC5EF74F108285ED8093BC008091BC00D9
:1037C00084FDFCCF1092110860911308E091340839
:1037D000F091350884E198E070E019951092130893
:1037E0002DC084E08093110810923608109237089B
:1037F000E0913808F09139081995809137088823AD
:1038000029F481E08093370810923A0890913608A5
:10381000E92FF0E0E65CF74F80818093BB009F5F6B
:10382000909336089091360880913708981710F4D5
:1038300085EC01C085E88093BC000FC085EC8093C7
:10384000BC0009C01092120885ED8093BC008091E5
:10385000BC0084FDFCCF10921108FF91EF91BF9145
:10386000AF919F918F917F916F915F914F913F9118
:103870002F910F900BBE0F900FBE0F901F901895B9
:10388000413208F040E2862F6CE777E00E940C1A84
:1038900010929C0780939D07089521E00E94401C90
:1038A00008950F93062F80919E076FE977E040916E
:1038B000C00721E00E94551A1092BF071092C0075E
:1038C0001092C1070F91089561E00E94511C089564
:1038D000DF93CF930F92CDB7DEB7FC016983809160
:1038E000C1078823C9F08091C007803238F081E099
:1038F00090E09383828320E030E01AC08091BF077C
:10390000E82FF0E0E156F84F998190838F5F809324
:10391000BF078093C0070AC080911108843031F43A
:1039200081E080933708898180933A0821E030E074
:10393000C9010F90CF91DF910895CF92DF92EF925E
:10394000FF920F931F93CF93DF936C018B017A014A
:103950008091C1078823A1F0C0E0D0E00DC0D6015E
:10396000ED91FC91D801AC0FBD1F0190F081E02DCD
:10397000C6016C9119952196CE15DF0580F313C011
:10398000413288F480911108843069F4E09237085C
:10399000562FAAE3B8E0FB0102C081918D938E2FD0
:1039A000851B8417D0F3C701DF91CF911F910F9131
:1039B000FF90EF90DF90CF90089520919D0730E029
:1039C00080919C07281B3109C901089540919C07EB
:1039D00080919D07481718F02FEF3FEF0AC0E42FA2
:1039E000F0E0E458F84F8081282F30E04F5F40939B
:1039F0009C07C9010895E0919C0780919D07E817F5
:103A000018F0EFEFFFEF06C0F0E0E458F84F8081C8
:103A1000E82FF0E0CF0108950895FF920F931F93D0
:103A2000CF93DF93F42E122F032F91E09093C107D1
:103A300080939E071092BF071092C00782EC97E018
:103A40000E94681C212F302FC901EC0110E006C034
:103A500082EC97E069910E94681C1F5F1F15C0F3FC
:103A600082EC97E00E94641C90E0882309F491E0C6
:103A7000892FDF91CF911F910F91FF900895DF93D0
:103A8000CF930F92CDB7DEB7498341E09E012F5F00
:103A90003F4F0E940D1D0F90CF91DF91089510921E
:103AA000C5071092C40788EE93E0A0E0B0E08093D1
:103AB000C6079093C707A093C807B093C90788EAC1
:103AC00094E09093C3078093C20788E68093CE0763
:103AD00089E68093DD0708952F923F924F925F927F
:103AE0006F927F928F929F92AF92BF92CF92DF920E
:103AF000EF92FF920F931F93DF93CF9300D00F921B
:103B00000F92CDB7DEB7882E6983942E3B832A832C
:103B10000E944F095B016C01FF24EE24292C332401
:103B200028016624772461C021E02093C107809298
:103B30009E071092BF071092C00782EC97E0698140
:103B40000E94681C82EC97E00E94641C31E0309374
:103B5000C10780929E071092BF071092C007A10173
:103B60004E1951094132510514F040E250E082EC07
:103B700097E0682D0E944D1C8F2D992787FD909509
:103B8000EA81FB818E0F9F1F9D838C830FC0E92FDD
:103B9000F0E0E458F84F8081282F9F5F90939C07B6
:103BA000EC81FD812193FD83EC83F39490919D073B
:103BB00080919C07981709F450C00115110561F018
:103BC0000E944F096A197B098C099D0964157505C6
:103BD0008605970508F041C090919C0780919D074C
:103BE0009817A8F22FEF3FEFDBCFE91408F49CCF32
:103BF00001151105C9F00E944F096A197B098C094A
:103C00009D09980140E050E062177307840795070B
:103C100058F02F2D332727FD3095892D90E0281758
:103C2000390714F4FF24FA948F2D0F900F900F9002
:103C30000F900F90CF91DF911F910F91FF90EF9018
:103C4000DF90CF90BF90AF909F908F907F906F90BC
:103C50005F904F903F902F90089582EC97E00E94E4
:103C6000641C892DF0E2F91508F480E2E80EBDCF5E
:103C7000EF92FF920F931F937C019C012F5F3F4FA8
:103C800000918A0410918B04FC01808163E442E07E
:103C90000E946C1DF701918180E0228130E0282B89
:103CA000392BC9011F910F91FF90EF900895EF926A
:103CB000FF920F931F937C019C012F5F3F4F009158
:103CC0008A0410918B04FC0180816FE342E00E9422
:103CD0006C1DF701918180E0228130E0282B392B87
:103CE000C9011F910F91FF90EF900895EF92FF92FD
:103CF0000F931F937C019C012F5F3F4F00918A041B
:103D000010918B04FC0180816DE342E00E946C1DE8
:103D1000F701918180E0228130E0282B392BC90105
:103D20001F910F91FF90EF9008956F927F928F9265
:103D30009F92AF92BF92CF92DF92EF92FF920F933A
:103D40001F93CF93DF93EC015B014A013901F60128
:103D5000608171818281938120E030E040E85FE3FF
:103D60000E943A25882349F58EEC97E00E94381E80
:103D7000998388838EEC97E00E94761EF5019183EB
:103D800080838EEC97E00E94571EF401918380831C
:103D90008DED97E00E94381EF301918380838DEDB5
:103DA00097E00E94761EF801918380838DED97E065
:103DB0000E94571EF70191838083DF91CF911F915D
:103DC0000F91FF90EF90DF90CF90BF90AF909F90BA
:103DD0008F907F906F9008950F931F93FA01890140
:103DE00041E09F010E946C1D1F910F910895DF9289
:103DF000EF92FF920F931F93DF93CF930F92CDB764
:103E0000DEB7E82ED62EF42E122F20918A043091A0
:103E10008B04AE014F5F5F4F0E94EC1E882341F17F
:103E2000212F30E04F2D50E04F5F5F4F421B530B6F
:103E300081E090E002C0880F991F1A95E2F7019780
:103E4000042E02C0880F991F0A94E2F7202F30E059
:103E500002C0220F331F4A95E2F7482F409559813F
:103E600045238223482B49838E2D6D2D0E943F1DB3
:103E70000F90CF91DF911F910F91FF90EF90DF9006
:103E800008950F93FC01062F80816BE642E023E04A
:103E90000E94F71E0F9108950F93FC01062F808159
:103EA0006CE144E022E00E94F71E0F9108950F9309
:103EB000FC01062F80816BE144E022E00E94F71EA6
:103EC0000F9108950F93FC01062F80816AE142E073
:103ED00023E00E94F71E0F910895EF92FF920F9337
:103EE0001F93DF93CF930F92CDB7DEB7F82EE62E58
:103EF000042F122F20918A0430918B04AE014F5F62
:103F00005F4F0E94EC1E2981112351F081E090E067
:103F100002C0880F991F0A95E2F7422F482B0AC06A
:103F200081E090E002C0880F991F0A95E2F7482FC0
:103F30004095422349838F2D6E2D0E943F1D0F9087
:103F4000CF91DF911F910F91FF90EF900895FC01A9
:103F5000262F80816BE646E00E946D1F08950F9327
:103F60001F938C0161E00E94411FC80160E00E9424
:103F7000571FC80160E00E944C1FC80160E00E940A
:103F8000A71F1F910F9108951092110881E080934F
:103F90000F081092100884E161E00E94780B85E11F
:103FA00061E00E94780BE9EBF0E080818E7F8083F6
:103FB00080818D7F808388E48093B80085E480933E
:103FC000BC00089510929C0710929D071092BF07A5
:103FD0001092C0070E94C41F0895CF92DF92CF9322
:103FE000DF93E601688179818A819B8120E030E05E
:103FF00040E85FE30E943A25882341F182EC97E094
:104000000E94E21F8EEC97E00E94AF1F8EEC97E0BB
:1040100063E00E94621F8EEC97E062E00E94571FEF
:104020008DED97E00E94AF1F8DED97E063E00E9459
:10403000621F8DED97E062E00E94571F80E090E0E4
:10404000A0E8BFE388839983AA83BB83DF91CF91E4
:10405000DF90CF9008958231910509F18331910568
:1040600034F48230910579F00397E1F409C084318A
:10407000910579F0843191057CF0459799F406C05B
:1040800021E030E011C020E030E00EC022E030E05E
:104090000BC023E030E008C024E030E005C025E09C
:1040A00030E002C02FEF3FEFC9010895CF92DF92B9
:1040B000EF92FF920F931F93DF93CF93CDB7DEB7AD
:1040C0007C016B01FA018901608171818281938198
:1040D00020E030E040E85FE30E943A258823F1F4D5
:1040E000D801EC91F0E093E0EE0FFF1F9A95E1F715
:1040F000E25AF74F80819181F70191838083119675
:10410000EC91F0E083E0EE0FFF1F8A95E1F7E25AB1
:10411000F74F80819181D6018D939C93CF91DF9150
:104120001F910F91FF90EF90DF90CF900895AF9285
:10413000BF92CF92DF92EF92FF920F931F93DF9384
:10414000CF93CDB7DEB76A018901DA016D917D9118
:104150008D919C9120E030E040E85FE30E943A2599
:10416000882309F40DC1D801EC91F0E0D7018C91BE
:1041700090E053E0EE0FFF1F5A95E1F7E65AF74F34
:1041800091838083D801EC91F0E0D5018C9190E08F
:1041900043E0EE0FFF1F4A95E1F7E45AF74F918392
:1041A0008083D8011196EC91F0E0D70111968C91A3
:1041B00090E033E0EE0FFF1F3A95E1F7E65AF74F34
:1041C00091838083D8011196EC91F0E0D50111968E
:1041D0008C9190E023E0EE0FFF1F2A95E1F7E45A5F
:1041E000F74F91838083D801EC91F0E0B3E0EE0FBC
:1041F000FF1FBA95E1F7E65AF74F8081918160E0A1
:104200000E94C50AD801EC91F0E0A3E0EE0FFF1F79
:10421000AA95E1F7E45AF74F8081918160E00E940E
:10422000C50AD8011196EC91F0E073E0EE0FFF1F84
:104230007A95E1F7E65AF74F8081918160E00E941C
:10424000C50AD8011196EC91F0E063E0EE0FFF1F74
:104250006A95E1F7E45AF74F8081918160E00E940E
:10426000C50AD801EC91F0E053E0EE0FFF1F5A951C
:10427000E1F7E65AF74F8081918161E00E94780B67
:10428000D801EC91F0E043E0EE0FFF1F4A95E1F713
:10429000E45AF74F8081918161E00E94780BD80148
:1042A0001196EC91F0E033E0EE0FFF1F3A95E1F745
:1042B000E65AF74F8081918161E00E94780BD80126
:1042C0001196EC91F0E023E0EE0FFF1F2A95E1F745
:1042D000E45AF74F8081918161E00E94780BF801E8
:1042E0002081222319F0223071F515C080915A08DF
:1042F00090915B080E942B2067ED73E241E050E053
:104300000E94030780915C0890915D080E942B2019
:104310006DE773E214C080916A0890916B080E9467
:104320002B2063E273E241E050E00E94030780919A
:104330006C0890916D080E942B2069EC72E241E0BC
:1043400050E00E94030780916800846080936800B9
:104350008091680082608093680080916D00816028
:1043600080936D0080916C00826080936C0080E08F
:1043700090E0A0E8BFE3F60180839183A283B3833A
:10438000CF91DF911F910F91FF90EF90DF90CF9031
:10439000BF90AF9008951F920F920FB60F920BB679
:1043A0000F9211240F931F932F933F934F935F937B
:1043B0006F937F938F939F93AF93BF93CF93DF932D
:1043C000EF93FF9380916208909163080E94AB0B7A
:1043D000EC01009168081091690820E030E024C0E9
:1043E000B901882777FD8095982F0E94D92520E074
:1043F00030E040E050E00E94742420E030E040E0F3
:1044000050E00E94742420E030E040E450E40E9438
:10441000742420E030E040E450E40E9473240E94C1
:10442000A6259B012F5F3F4F20173107CCF28091CB
:104430006408909165080E94AB0B019719F42197CD
:1044400049F402C0CD2B31F4809166089091670841
:10445000019605C080916608909167080197909336
:10446000670880936608FF91EF91DF91CF91BF912C
:10447000AF919F918F917F916F915F914F913F91FC
:104480002F911F910F910F900BBE0F900FBE0F90A9
:104490001F9018951F920F920FB60F920BB60F92A6
:1044A00011240F931F932F933F934F935F936F9319
:1044B0007F938F939F93AF93BF93CF93DF93EF93AC
:1044C000FF9380916408909165080E94AB0BEC010A
:1044D000009168081091690820E030E024C0B9011B
:1044E000882777FD8095982F0E94D92520E030E01D
:1044F00040E050E00E94742420E030E040E050E0D2
:104500000E94742420E030E040E450E40E947424CF
:1045100020E030E040E450E40E9473240E94A6258D
:104520009B012F5F3F4F20173107CCF2809162082B
:10453000909163080E94AB0B019719F4CD2B49F4BD
:1045400002C0219731F48091660890916708019626
:1045500005C080916608909167080197909367085D
:1045600080936608FF91EF91DF91CF91BF91AF915A
:104570009F918F917F916F915F914F913F912F917B
:104580001F910F910F900BBE0F900FBE0F901F90B9
:1045900018950F931F93CF93DF9380916A089091A2
:1045A0006B080E94AB0BEC01009170081091710830
:1045B00020E030E024C0B901882777FD8095982F4E
:1045C0000E94D92520E030E040E050E00E947424B1
:1045D00020E030E040E050E00E94742420E030E031
:1045E00040E450E40E94742420E030E040E450E4D1
:1045F0000E9473240E94A6259B012F5F3F4F201726
:104600003107CCF280916C0890916D080E94AB0B41
:10461000019719F4219749F402C0CD2B31F4809110
:104620006E0890916F08019605C080916E08909178
:104630006F08019790936F0880936E08DF91CF9178
:104640001F910F9108950F931F93CF93DF93809144
:104650006C0890916D080E94AB0BEC010091700802
:104660001091710820E030E024C0B901882777FD5F
:104670008095982F0E94D92520E030E040E050E05E
:104680000E94742420E030E040E050E00E94742456
:1046900020E030E040E450E40E94742420E030E068
:1046A00040E450E40E9473240E94A6259B012F5FE2
:1046B0003F4F20173107CCF280916A0890916B0828
:1046C0000E94AB0B019719F4CD2B49F402C021973E
:1046D00031F480916E0890916F08019605C0809129
:1046E0006E0890916F08019790936F0880936E0801
:1046F000DF91CF911F910F9108950F931F93CF9347
:10470000DF9380915A0890915B080E94AB0BEC01FB
:10471000009160081091610820E030E024C0B901E8
:10472000882777FD8095982F0E94D92520E030E0DA
:1047300040E050E00E94742420E030E040E050E08F
:104740000E94742420E030E040E450E40E9474248D
:1047500020E030E040E450E40E9473240E94A6254B
:104760009B012F5F3F4F20173107CCF280915C08EF
:1047700090915D080E94AB0B019719F4219749F4C1
:1047800002C0CD2B31F480915E0890915F080196B4
:1047900005C080915E0890915F08019790935F0833
:1047A00080935E08DF91CF911F910F9108950F9331
:1047B0001F93CF93DF9380915C0890915D080E94D6
:1047C000AB0BEC01009160081091610820E030E033
:1047D00024C0B901882777FD8095982F0E94D9259C
:1047E00020E030E040E050E00E94742420E030E01F
:1047F00040E050E00E94742420E030E040E450E4C7
:104800000E94742420E030E040E450E40E947324CD
:104810000E94A6259B012F5F3F4F20173107CCF246
:1048200080915A0890915B080E94AB0B019719F494
:10483000CD2B49F402C0219731F480915E0890910C
:104840005F08019605C080915E0890915F0801970E
:1048500090935F0880935E08DF91CF911F910F9135
:1048600008950F931F93CF93DF938B01EA01FB0110
:10487000608171818281938120E030E040E85FE3D4
:104880000E943A25882369F0888161E00E94C50A68
:1048900080E090E0A0E8BFE3F80180839183A283E9
:1048A000B383DF91CF911F910F9108950F931F93C1
:1048B000CF93DF938C01FB01EA01608171818281DA
:1048C000938120E030E040E85FE30E943A258823AE
:1048D00029F48881F80160810E94780BDF91CF91E3
:1048E0001F910F9108955058BB27AA270ED0FCC1E5
:1048F000EDD130F0F2D120F031F49F3F11F41EF4ED
:10490000BDC10EF4E095E7FBB3C1E92FFED180F302
:10491000BA17620773078407950718F071F49EF5BC
:1049200016C20EF4E0950B2EBA2FA02D0B01B90183
:1049300090010C01CA01A0011124FF27591B99F015
:10494000593F50F4503E68F11A16F040A22F232F21
:10495000342F4427585FF3CF469537952795A79571
:10496000F0405395C9F77EF41F16BA0B620B730B18
:10497000840BBAF09150A1F0FF0FBB1F661F771F89
:10498000881FC2F70EC0BA0F621F731F841F48F43E
:10499000879577956795B795F7959E3F08F0B3CFC4
:1049A0009395880F08F09927EE0F979587950895AE
:1049B0008DD158F080E891E009F49EEF8ED128F077
:1049C00040E851E059F45EEF09C058C1C0C1E92F79
:1049D000E0789BD168F3092E052AC1F32617370723
:1049E0004807590738F00E2E07F8E02569F0E02552
:1049F000E0640AC0EF6307F8009407FADB01B9012D
:104A00009D01DC01CA01AD01EF9347D06DD10AD001
:104A10005F91552331F02BED3FE049E450FD49EC27
:104A200063CF0895DF93DD27B92FBF7740E85FE3B9
:104A30001616170648075B0710F4D92F93D19F93DA
:104A40008F937F936F93F8D1E4EEF0E01AD14CD1BD
:104A50002F913F914F915F9198D1DD2349F090586C
:104A6000A2EA2AED3FE049EC5FE3D0785D274DDF15
:104A7000DF913AC1D9D008F481E008950CD034C157
:104A80002CD140F023D130F021F45F3F19F0F0C079
:104A900051115EC1F3C039D198F39923C9F355235D
:104AA000B1F3951B550BBB27AA2762177307840721
:104AB00038F09F5F5F4F220F331F441FAA1FA9F3D7
:104AC00033D00E2E3AF0E0E830D091505040E695C9
:104AD000001CCAF729D0FE2F27D0660F771F881F2A
:104AE000BB1F261737074807AB07B0E809F0BB0B19
:104AF000802DBF01FF2793585F4F2AF09E3F51053D
:104B000068F0B6C025C15F3FECF3983EDCF38695B4
:104B100077956795B795F7959F5FC9F7880F911DB2
:104B20009695879597F90895E1E0660F771F881F9E
:104B3000BB1F621773078407BA0720F0621B730B51
:104B4000840BBA0BEE1F88F7E095089504D06894A3
:104B5000B111FEC00895E1D088F09F5790F0B92FB1
:104B60009927B751A0F0D1F0660F771F881F991FC2
:104B70001AF0BA95C9F712C0B13081F0E8D0B1E0AF
:104B80000895E5C0672F782F8827B85F39F0B93FBF
:104B9000CCF3869577956795B395D9F73EF49095C4
:104BA0008095709561957F4F8F4F9F4F0895E89442
:104BB00009C097FB3EF490958095709561957F4F65
:104BC0008F4F9F4F9923A9F0F92F96E9BB27939513
:104BD000F695879577956795B795F111F8CFFAF423
:104BE000BB0F11F460FF1BC06F5F7F4F8F4F9F4F54
:104BF00016C0882311F096E911C0772321F09EE8B2
:104C0000872F762F05C0662371F096E8862F70E017
:104C100060E02AF09A95660F771F881FDAF7880FF1
:104C20009695879597F90895990F0008550FAA0B47
:104C3000E0E8FEEF16161706E807F907C0F01216AF
:104C40001306E407F50798F0621B730B840B950BB2
:104C500039F40A2661F0232B242B252B21F4089507
:104C60000A2609F4A140A6958FEF811D811D0895A4
:104C700097F99F6780E870E060E008959FEF80EC0F
:104C80000895DF93CF931F930F93FF92EF92DF92DC
:104C90007B018C01689405C0DA2EEF0176D0FE010D
:104CA000E894A5912591359145915591AEF3EF0189
:104CB0002CDEFE019701A801DA9479F7DF90EF90DE
:104CC000FF900F911F91CF91DF91089500240A94D6
:104CD0001616170618060906089500240A941216D7
:104CE0001306140605060895092E0394000C11F40A
:104CF000882352F0BB0F40F4BF2B11F460FF04C0B7
:104D00006F5F7F4F8F4F9F4F089557FD9058440F0F
:104D1000551F59F05F3F71F04795880F97FB991F1A
:104D200061F09F3F79F087950895121613061406D7
:104D3000551FF2CF4695F1DF08C016161706180664
:104D4000991FF1CF86957105610508940895E8943F
:104D5000BB2766277727CB0197F9089565DF08F40D
:104D60008FEF08959B01AC0160E070E080E89FE365
:104D700085CE0BD0B9CFAADF28F0AFDF18F095238E
:104D800009F076CF7BCF1124E3CFBFDFA0F3959F4F
:104D9000D1F3950F50E0551F629FF001729FBB2722
:104DA000F00DB11D639FAA27F00DB11DAA1F649FCE
:104DB0006627B00DA11D661F829F2227B00DA11D81
:104DC000621F739FB00DA11D621F839FA00D611D07
:104DD000221F749F3327A00D611D231F849F600D28
:104DE000211D822F762F6A2F11249F5750408AF061
:104DF000E1F088234AF0EE0FFF1FBB1F661F771FED
:104E0000881F91505040A9F79E3F510570F030CF58
:104E10009FCF5F3FECF3983EDCF3869577956795DF
:104E2000B795F795E7959F5FC1F7FE2B880F911D0A
:104E30009695879597F908959B01AC019ACF629F4B
:104E4000D001739FF001829FE00DF11D649FE00D82
:104E5000F11D929FF00D839FF00D749FF00D659FE3
:104E6000F00D9927729FB00DE11DF91F639FB00DE2
:104E7000E11DF91FBD01CF0111240895A1E21A2EF1
:104E8000AA1BBB1BFD010DC0AA1FBB1FEE1FFF1FEE
:104E9000A217B307E407F50720F0A21BB30BE40B3E
:104EA000F50B661F771F881F991F1A9469F7609585
:104EB0007095809590959B01AC01BD01CF0108953F
:104EC000EE0FFF1F0590F491E02D199412E0CAE354
:104ED000D2E004C0FE010E9462272296CC33D107A3
:064EE000C9F7F894FFCFB2
:104EE6004669786564537465704469736372657462
:104EF6006500496E76616C6964204672616D650075
:104F060035FA0EBC58A00B3A611AC23F62107442C1
:104F1600AB5EC7C2A3A3C7C10AD7A33C0AD7233C2B
:104F26009A99993F0000000000000000020000006E
:104F36000600000008000000050000000000000058
:104F46000000803F00000000000080BF0000803F9E
:104F560000000000000080BF000096C2000080BF75
:104F660000000000000080BF00C085C4000080BFB4
:104F760000000000000080BF0000003FCDCC4C3D8B
:104F8600000000BF000000003333733F0AD7233C04
:104F96000000C8420000C8420000803F0000000038
:104FA60000000000000080BF000080BFD00F494015
:104FB6000000104100007F430000E84100007F43ED
:104FC6000000A0410100040D0001123E130FA400D1
:104FD600000000000040004000400040004000404B
:104FE60000400040004000400040004000400040BB
:104FF60000400040004000400040004000400040AB
:10500600004000400040004000400040004000409A
:10501600004000400040004000400040004000408A
:10502600004000400040004000400040004000407A
:10503600004000400040004000400040004000406A
:10504600004000400040004000400040004000405A
:10505600004000400040004000400040004000404A
:10506600004000400040004000400040004000403A
:10507600004000400040004000400040004000402A
:10508600004000400040004000400040004000401A
:10509600004000400040004000400040A4000000E6
:1050A600000000400040004000400040004000403A
:1050B60000400040004000400040004000400040EA
:1050C60000400040004000400040004000400040DA
:1050D60000400040004000400040004000400040CA
:1050E60000400040004000400040004000400040BA
:1050F60000400040004000400040004000400040AA
:105106000040004000400040004000400040004099
:105116000040004000400040004000400040004089
:105126000040004000400040004000400040004079
:105136000040004000400040004000400040004069
:105146000040004000400040004000400040004059
:105156000040004000400040004000400040004049
:1051660000400040004000400040E803000000000E
:105176003604FD05CC03FD03DD0326040000000014
:10518600BB05720800000000681C9D1CDD1CE61CA7
:04519600FB1C0C1DD5
:00000001FF
